{
  "_format": "hh-sol-artifact-1",
  "contractName": "Test",
  "sourceName": "contracts/Test.sol",
  "abi": [
    {
      "inputs": [],
      "stateMutability": "nonpayable",
      "type": "constructor"
    },
    {
      "inputs": [],
      "name": "ApprovalCallerNotOwnerNorApproved",
      "type": "error"
    },
    {
      "inputs": [],
      "name": "ApprovalQueryForNonexistentToken",
      "type": "error"
    },
    {
      "inputs": [],
      "name": "BalanceQueryForZeroAddress",
      "type": "error"
    },
    {
      "inputs": [],
      "name": "MintERC2309QuantityExceedsLimit",
      "type": "error"
    },
    {
      "inputs": [],
      "name": "MintToZeroAddress",
      "type": "error"
    },
    {
      "inputs": [],
      "name": "MintZeroQuantity",
      "type": "error"
    },
    {
      "inputs": [],
      "name": "OwnerQueryForNonexistentToken",
      "type": "error"
    },
    {
      "inputs": [],
      "name": "OwnershipNotInitializedForExtraData",
      "type": "error"
    },
    {
      "inputs": [],
      "name": "TransferCallerNotOwnerNorApproved",
      "type": "error"
    },
    {
      "inputs": [],
      "name": "TransferFromIncorrectOwner",
      "type": "error"
    },
    {
      "inputs": [],
      "name": "TransferToNonERC721ReceiverImplementer",
      "type": "error"
    },
    {
      "inputs": [],
      "name": "TransferToZeroAddress",
      "type": "error"
    },
    {
      "inputs": [],
      "name": "URIQueryForNonexistentToken",
      "type": "error"
    },
    {
      "anonymous": false,
      "inputs": [
        {
          "indexed": true,
          "internalType": "address",
          "name": "owner",
          "type": "address"
        },
        {
          "indexed": true,
          "internalType": "address",
          "name": "approved",
          "type": "address"
        },
        {
          "indexed": true,
          "internalType": "uint256",
          "name": "tokenId",
          "type": "uint256"
        }
      ],
      "name": "Approval",
      "type": "event"
    },
    {
      "anonymous": false,
      "inputs": [
        {
          "indexed": true,
          "internalType": "address",
          "name": "owner",
          "type": "address"
        },
        {
          "indexed": true,
          "internalType": "address",
          "name": "operator",
          "type": "address"
        },
        {
          "indexed": false,
          "internalType": "bool",
          "name": "approved",
          "type": "bool"
        }
      ],
      "name": "ApprovalForAll",
      "type": "event"
    },
    {
      "anonymous": false,
      "inputs": [
        {
          "indexed": true,
          "internalType": "uint256",
          "name": "fromTokenId",
          "type": "uint256"
        },
        {
          "indexed": false,
          "internalType": "uint256",
          "name": "toTokenId",
          "type": "uint256"
        },
        {
          "indexed": true,
          "internalType": "address",
          "name": "from",
          "type": "address"
        },
        {
          "indexed": true,
          "internalType": "address",
          "name": "to",
          "type": "address"
        }
      ],
      "name": "ConsecutiveTransfer",
      "type": "event"
    },
    {
      "anonymous": false,
      "inputs": [
        {
          "indexed": true,
          "internalType": "address",
          "name": "previousOwner",
          "type": "address"
        },
        {
          "indexed": true,
          "internalType": "address",
          "name": "newOwner",
          "type": "address"
        }
      ],
      "name": "OwnershipTransferred",
      "type": "event"
    },
    {
      "anonymous": false,
      "inputs": [
        {
          "indexed": true,
          "internalType": "address",
          "name": "from",
          "type": "address"
        },
        {
          "indexed": true,
          "internalType": "address",
          "name": "to",
          "type": "address"
        },
        {
          "indexed": true,
          "internalType": "uint256",
          "name": "tokenId",
          "type": "uint256"
        }
      ],
      "name": "Transfer",
      "type": "event"
    },
    {
      "inputs": [
        {
          "internalType": "address",
          "name": "to",
          "type": "address"
        },
        {
          "internalType": "uint256",
          "name": "tokenId",
          "type": "uint256"
        }
      ],
      "name": "approve",
      "outputs": [],
      "stateMutability": "payable",
      "type": "function"
    },
    {
      "inputs": [
        {
          "internalType": "address",
          "name": "owner",
          "type": "address"
        }
      ],
      "name": "balanceOf",
      "outputs": [
        {
          "internalType": "uint256",
          "name": "",
          "type": "uint256"
        }
      ],
      "stateMutability": "view",
      "type": "function"
    },
    {
      "inputs": [],
      "name": "baseExtension",
      "outputs": [
        {
          "internalType": "string",
          "name": "",
          "type": "string"
        }
      ],
      "stateMutability": "view",
      "type": "function"
    },
    {
      "inputs": [],
      "name": "cost",
      "outputs": [
        {
          "internalType": "uint256",
          "name": "",
          "type": "uint256"
        }
      ],
      "stateMutability": "view",
      "type": "function"
    },
    {
      "inputs": [
        {
          "internalType": "uint256",
          "name": "tokenId",
          "type": "uint256"
        }
      ],
      "name": "getApproved",
      "outputs": [
        {
          "internalType": "address",
          "name": "",
          "type": "address"
        }
      ],
      "stateMutability": "view",
      "type": "function"
    },
    {
      "inputs": [],
      "name": "hiddenURI",
      "outputs": [
        {
          "internalType": "string",
          "name": "",
          "type": "string"
        }
      ],
      "stateMutability": "view",
      "type": "function"
    },
    {
      "inputs": [
        {
          "internalType": "address",
          "name": "owner",
          "type": "address"
        },
        {
          "internalType": "address",
          "name": "operator",
          "type": "address"
        }
      ],
      "name": "isApprovedForAll",
      "outputs": [
        {
          "internalType": "bool",
          "name": "",
          "type": "bool"
        }
      ],
      "stateMutability": "view",
      "type": "function"
    },
    {
      "inputs": [],
      "name": "merkleRoot",
      "outputs": [
        {
          "internalType": "bytes32",
          "name": "",
          "type": "bytes32"
        }
      ],
      "stateMutability": "view",
      "type": "function"
    },
    {
      "inputs": [],
      "name": "mintActive",
      "outputs": [
        {
          "internalType": "bool",
          "name": "",
          "type": "bool"
        }
      ],
      "stateMutability": "view",
      "type": "function"
    },
    {
      "inputs": [
        {
          "internalType": "bytes32[]",
          "name": "_merkleProof",
          "type": "bytes32[]"
        },
        {
          "internalType": "uint256",
          "name": "_count",
          "type": "uint256"
        }
      ],
      "name": "mintWhitelist",
      "outputs": [],
      "stateMutability": "payable",
      "type": "function"
    },
    {
      "inputs": [],
      "name": "mints",
      "outputs": [
        {
          "internalType": "uint256",
          "name": "",
          "type": "uint256"
        }
      ],
      "stateMutability": "view",
      "type": "function"
    },
    {
      "inputs": [],
      "name": "name",
      "outputs": [
        {
          "internalType": "string",
          "name": "",
          "type": "string"
        }
      ],
      "stateMutability": "view",
      "type": "function"
    },
    {
      "inputs": [],
      "name": "owner",
      "outputs": [
        {
          "internalType": "address",
          "name": "",
          "type": "address"
        }
      ],
      "stateMutability": "view",
      "type": "function"
    },
    {
      "inputs": [
        {
          "internalType": "uint256",
          "name": "tokenId",
          "type": "uint256"
        }
      ],
      "name": "ownerOf",
      "outputs": [
        {
          "internalType": "address",
          "name": "",
          "type": "address"
        }
      ],
      "stateMutability": "view",
      "type": "function"
    },
    {
      "inputs": [],
      "name": "releaseReserve",
      "outputs": [],
      "stateMutability": "nonpayable",
      "type": "function"
    },
    {
      "inputs": [],
      "name": "renounceOwnership",
      "outputs": [],
      "stateMutability": "nonpayable",
      "type": "function"
    },
    {
      "inputs": [
        {
          "internalType": "address",
          "name": "owner",
          "type": "address"
        },
        {
          "internalType": "uint256",
          "name": "_count",
          "type": "uint256"
        }
      ],
      "name": "reserveTokens",
      "outputs": [],
      "stateMutability": "nonpayable",
      "type": "function"
    },
    {
      "inputs": [],
      "name": "revealLive",
      "outputs": [
        {
          "internalType": "bool",
          "name": "",
          "type": "bool"
        }
      ],
      "stateMutability": "view",
      "type": "function"
    },
    {
      "inputs": [
        {
          "internalType": "address",
          "name": "from",
          "type": "address"
        },
        {
          "internalType": "address",
          "name": "to",
          "type": "address"
        },
        {
          "internalType": "uint256",
          "name": "tokenId",
          "type": "uint256"
        }
      ],
      "name": "safeTransferFrom",
      "outputs": [],
      "stateMutability": "payable",
      "type": "function"
    },
    {
      "inputs": [
        {
          "internalType": "address",
          "name": "from",
          "type": "address"
        },
        {
          "internalType": "address",
          "name": "to",
          "type": "address"
        },
        {
          "internalType": "uint256",
          "name": "tokenId",
          "type": "uint256"
        },
        {
          "internalType": "bytes",
          "name": "_data",
          "type": "bytes"
        }
      ],
      "name": "safeTransferFrom",
      "outputs": [],
      "stateMutability": "payable",
      "type": "function"
    },
    {
      "inputs": [
        {
          "internalType": "address",
          "name": "operator",
          "type": "address"
        },
        {
          "internalType": "bool",
          "name": "approved",
          "type": "bool"
        }
      ],
      "name": "setApprovalForAll",
      "outputs": [],
      "stateMutability": "nonpayable",
      "type": "function"
    },
    {
      "inputs": [
        {
          "internalType": "string",
          "name": "uri",
          "type": "string"
        }
      ],
      "name": "setBaseURI",
      "outputs": [],
      "stateMutability": "nonpayable",
      "type": "function"
    },
    {
      "inputs": [
        {
          "internalType": "uint256",
          "name": "_cost",
          "type": "uint256"
        }
      ],
      "name": "setCost",
      "outputs": [],
      "stateMutability": "nonpayable",
      "type": "function"
    },
    {
      "inputs": [
        {
          "internalType": "string",
          "name": "_hiddenURI",
          "type": "string"
        }
      ],
      "name": "setHiddenURI",
      "outputs": [],
      "stateMutability": "nonpayable",
      "type": "function"
    },
    {
      "inputs": [
        {
          "internalType": "bool",
          "name": "_mintActive",
          "type": "bool"
        }
      ],
      "name": "setMintActive",
      "outputs": [],
      "stateMutability": "nonpayable",
      "type": "function"
    },
    {
      "inputs": [
        {
          "internalType": "uint256",
          "name": "_mints",
          "type": "uint256"
        }
      ],
      "name": "setMintLimit",
      "outputs": [],
      "stateMutability": "nonpayable",
      "type": "function"
    },
    {
      "inputs": [],
      "name": "setReveal",
      "outputs": [],
      "stateMutability": "nonpayable",
      "type": "function"
    },
    {
      "inputs": [
        {
          "internalType": "bytes32",
          "name": "_merkleRoot",
          "type": "bytes32"
        }
      ],
      "name": "setWhitelistMerkleRoot",
      "outputs": [],
      "stateMutability": "nonpayable",
      "type": "function"
    },
    {
      "inputs": [],
      "name": "supply",
      "outputs": [
        {
          "internalType": "uint256",
          "name": "",
          "type": "uint256"
        }
      ],
      "stateMutability": "view",
      "type": "function"
    },
    {
      "inputs": [
        {
          "internalType": "bytes4",
          "name": "interfaceId",
          "type": "bytes4"
        }
      ],
      "name": "supportsInterface",
      "outputs": [
        {
          "internalType": "bool",
          "name": "",
          "type": "bool"
        }
      ],
      "stateMutability": "view",
      "type": "function"
    },
    {
      "inputs": [],
      "name": "symbol",
      "outputs": [
        {
          "internalType": "string",
          "name": "",
          "type": "string"
        }
      ],
      "stateMutability": "view",
      "type": "function"
    },
    {
      "inputs": [
        {
          "internalType": "uint256",
          "name": "_tokenId",
          "type": "uint256"
        }
      ],
      "name": "tokenURI",
      "outputs": [
        {
          "internalType": "string",
          "name": "",
          "type": "string"
        }
      ],
      "stateMutability": "view",
      "type": "function"
    },
    {
      "inputs": [],
      "name": "totalSupply",
      "outputs": [
        {
          "internalType": "uint256",
          "name": "",
          "type": "uint256"
        }
      ],
      "stateMutability": "view",
      "type": "function"
    },
    {
      "inputs": [
        {
          "internalType": "address",
          "name": "from",
          "type": "address"
        },
        {
          "internalType": "address",
          "name": "to",
          "type": "address"
        },
        {
          "internalType": "uint256",
          "name": "tokenId",
          "type": "uint256"
        }
      ],
      "name": "transferFrom",
      "outputs": [],
      "stateMutability": "payable",
      "type": "function"
    },
    {
      "inputs": [
        {
          "internalType": "address",
          "name": "newOwner",
          "type": "address"
        }
      ],
      "name": "transferOwnership",
      "outputs": [],
      "stateMutability": "nonpayable",
      "type": "function"
    },
    {
      "inputs": [],
      "name": "withdraw",
      "outputs": [],
      "stateMutability": "payable",
      "type": "function"
    }
  ],
  "bytecode": "0x60806040526040518060400160405280600581526020017f2e6a736f6e000000000000000000000000000000000000000000000000000000815250600b9080519060200190620000519291906200026c565b506000600d60006101000a81548160ff0219169083151502179055506000600d60016101000a81548160ff021916908315150217905550610309600e55660384665653e000600f556002601055601e601155348015620000b057600080fd5b506040518060400160405280600481526020017f54657374000000000000000000000000000000000000000000000000000000008152506040518060400160405280600481526020017f54657374000000000000000000000000000000000000000000000000000000008152508160029080519060200190620001359291906200026c565b5080600390805190602001906200014e9291906200026c565b506200015f6200019560201b60201c565b6000819055505050620001876200017b6200019e60201b60201c565b620001a660201b60201c565b600160098190555062000381565b60006001905090565b600033905090565b6000600860009054906101000a900473ffffffffffffffffffffffffffffffffffffffff16905081600860006101000a81548173ffffffffffffffffffffffffffffffffffffffff021916908373ffffffffffffffffffffffffffffffffffffffff1602179055508173ffffffffffffffffffffffffffffffffffffffff168173ffffffffffffffffffffffffffffffffffffffff167f8be0079c531659141344cd1fd0a4f28419497f9722a3daafe3b4186f6b6457e060405160405180910390a35050565b8280546200027a906200031c565b90600052602060002090601f0160209004810192826200029e5760008555620002ea565b82601f10620002b957805160ff1916838001178555620002ea565b82800160010185558215620002ea579182015b82811115620002e9578251825591602001919060010190620002cc565b5b509050620002f99190620002fd565b5090565b5b8082111562000318576000816000905550600101620002fe565b5090565b600060028204905060018216806200033557607f821691505b602082108114156200034c576200034b62000352565b5b50919050565b7f4e487b7100000000000000000000000000000000000000000000000000000000600052602260045260246000fd5b61388780620003916000396000f3fe60806040526004361061020f5760003560e01c806378cf19e911610118578063bd32fb66116100a0578063d3933ada1161006f578063d3933ada14610701578063dfc7379d14610718578063e985e9c514610743578063ee1cc94414610780578063f2fde38b146107a95761020f565b8063bd32fb6614610645578063c66828621461066e578063c87b56dd14610699578063cee7896c146106d65761020f565b80639e6a1d7d116100e75780639e6a1d7d14610592578063a22cb465146105bb578063a6d612f9146105e4578063b88d4fde14610600578063bbaac02f1461061c5761020f565b806378cf19e9146104e85780638cc54e7f146105115780638da5cb5b1461053c57806395d89b41146105675761020f565b80632eb4a7ab1161019b57806355f804b31161016a57806355f804b3146104175780636352211e1461044057806370a082311461047d578063715018a6146104ba57806376645315146104d15761020f565b80632eb4a7ab1461039d5780633ccfd60b146103c857806342842e0e146103d257806344a0d68a146103ee5761020f565b8063095ea7b3116101e2578063095ea7b3146102e457806313faede61461030057806318160ddd1461032b57806323b872dd1461035657806325fd90f3146103725761020f565b806301ffc9a714610214578063047fc9aa1461025157806306fdde031461027c578063081812fc146102a7575b600080fd5b34801561022057600080fd5b5061023b60048036038101906102369190612b07565b6107d2565b6040516102489190612fa4565b60405180910390f35b34801561025d57600080fd5b50610266610864565b604051610273919061315c565b60405180910390f35b34801561028857600080fd5b5061029161086a565b60405161029e9190612fda565b60405180910390f35b3480156102b357600080fd5b506102ce60048036038101906102c99190612b9a565b6108fc565b6040516102db9190612f3d565b60405180910390f35b6102fe60048036038101906102f99190612a21565b61097b565b005b34801561030c57600080fd5b50610315610abf565b604051610322919061315c565b60405180910390f35b34801561033757600080fd5b50610340610ac5565b60405161034d919061315c565b60405180910390f35b610370600480360381019061036b919061291b565b610adc565b005b34801561037e57600080fd5b50610387610e01565b6040516103949190612fa4565b60405180910390f35b3480156103a957600080fd5b506103b2610e14565b6040516103bf9190612fbf565b60405180910390f35b6103d0610e1a565b005b6103ec60048036038101906103e7919061291b565b610eb2565b005b3480156103fa57600080fd5b5061041560048036038101906104109190612b9a565b610ed2565b005b34801561042357600080fd5b5061043e60048036038101906104399190612b59565b610ee4565b005b34801561044c57600080fd5b5061046760048036038101906104629190612b9a565b610f06565b6040516104749190612f3d565b60405180910390f35b34801561048957600080fd5b506104a4600480360381019061049f91906128b6565b610f18565b6040516104b1919061315c565b60405180910390f35b3480156104c657600080fd5b506104cf610fd1565b005b3480156104dd57600080fd5b506104e6610fe5565b005b3480156104f457600080fd5b5061050f600480360381019061050a9190612a21565b61100a565b005b34801561051d57600080fd5b50610526611089565b6040516105339190612fda565b60405180910390f35b34801561054857600080fd5b50610551611117565b60405161055e9190612f3d565b60405180910390f35b34801561057357600080fd5b5061057c611141565b6040516105899190612fda565b60405180910390f35b34801561059e57600080fd5b506105b960048036038101906105b49190612b9a565b6111d3565b005b3480156105c757600080fd5b506105e260048036038101906105dd91906129e5565b6111e5565b005b6105fe60048036038101906105f99190612a5d565b6112f0565b005b61061a6004803603810190610615919061296a565b611624565b005b34801561062857600080fd5b50610643600480360381019061063e9190612b59565b611697565b005b34801561065157600080fd5b5061066c60048036038101906106679190612ade565b6116b9565b005b34801561067a57600080fd5b506106836116cb565b6040516106909190612fda565b60405180910390f35b3480156106a557600080fd5b506106c060048036038101906106bb9190612b9a565b611759565b6040516106cd9190612fda565b60405180910390f35b3480156106e257600080fd5b506106eb6118b2565b6040516106f89190612fa4565b60405180910390f35b34801561070d57600080fd5b506107166118c5565b005b34801561072457600080fd5b5061072d6118d7565b60405161073a919061315c565b60405180910390f35b34801561074f57600080fd5b5061076a600480360381019061076591906128df565b6118dd565b6040516107779190612fa4565b60405180910390f35b34801561078c57600080fd5b506107a760048036038101906107a29190612ab5565b611971565b005b3480156107b557600080fd5b506107d060048036038101906107cb91906128b6565b611996565b005b60006301ffc9a760e01b827bffffffffffffffffffffffffffffffffffffffffffffffffffffffff1916148061082d57506380ac58cd60e01b827bffffffffffffffffffffffffffffffffffffffffffffffffffffffff1916145b8061085d5750635b5e139f60e01b827bffffffffffffffffffffffffffffffffffffffffffffffffffffffff1916145b9050919050565b600e5481565b60606002805461087990613405565b80601f01602080910402602001604051908101604052809291908181526020018280546108a590613405565b80156108f25780601f106108c7576101008083540402835291602001916108f2565b820191906000526020600020905b8154815290600101906020018083116108d557829003601f168201915b5050505050905090565b600061090782611a1a565b61093d576040517fcf4700e400000000000000000000000000000000000000000000000000000000815260040160405180910390fd5b6006600083815260200190815260200160002060000160009054906101000a900473ffffffffffffffffffffffffffffffffffffffff169050919050565b600061098682610f06565b90508073ffffffffffffffffffffffffffffffffffffffff166109a7611a79565b73ffffffffffffffffffffffffffffffffffffffff1614610a0a576109d3816109ce611a79565b6118dd565b610a09576040517fcfb3b94200000000000000000000000000000000000000000000000000000000815260040160405180910390fd5b5b826006600084815260200190815260200160002060000160006101000a81548173ffffffffffffffffffffffffffffffffffffffff021916908373ffffffffffffffffffffffffffffffffffffffff160217905550818373ffffffffffffffffffffffffffffffffffffffff168273ffffffffffffffffffffffffffffffffffffffff167f8c5be1e5ebec7d5bd14f71427d1e84f3dd0314c0f7b2291e5b200ac8c7c3b92560405160405180910390a4505050565b600f5481565b6000610acf611a81565b6001546000540303905090565b6000610ae782611a8a565b90508373ffffffffffffffffffffffffffffffffffffffff168173ffffffffffffffffffffffffffffffffffffffff1614610b4e576040517fa114810000000000000000000000000000000000000000000000000000000000815260040160405180910390fd5b600080610b5a84611b58565b91509150610b708187610b6b611a79565b611b7f565b610bbc57610b8586610b80611a79565b6118dd565b610bbb576040517f59c896be00000000000000000000000000000000000000000000000000000000815260040160405180910390fd5b5b600073ffffffffffffffffffffffffffffffffffffffff168573ffffffffffffffffffffffffffffffffffffffff161415610c23576040517fea553b3400000000000000000000000000000000000000000000000000000000815260040160405180910390fd5b610c308686866001611bc3565b8015610c3b57600082555b600560008773ffffffffffffffffffffffffffffffffffffffff1673ffffffffffffffffffffffffffffffffffffffff168152602001908152602001600020600081546001900391905081905550600560008673ffffffffffffffffffffffffffffffffffffffff1673ffffffffffffffffffffffffffffffffffffffff1681526020019081526020016000206000815460010191905081905550610d0985610ce5888887611bc9565b7c020000000000000000000000000000000000000000000000000000000017611bf1565b600460008681526020019081526020016000208190555060007c020000000000000000000000000000000000000000000000000000000084161415610d91576000600185019050600060046000838152602001908152602001600020541415610d8f576000548114610d8e578360046000838152602001908152602001600020819055505b5b505b838573ffffffffffffffffffffffffffffffffffffffff168773ffffffffffffffffffffffffffffffffffffffff167fddf252ad1be2c89b69c2b068fc378daa952ba7f163c4a11628f55a4df523b3ef60405160405180910390a4610df98686866001611c1c565b505050505050565b600d60009054906101000a900460ff1681565b60135481565b610e22611c22565b610e2a611ca0565b6000610e34611117565b73ffffffffffffffffffffffffffffffffffffffff1647604051610e5790612f28565b60006040518083038185875af1925050503d8060008114610e94576040519150601f19603f3d011682016040523d82523d6000602084013e610e99565b606091505b5050905080610ea757600080fd5b50610eb0611cf0565b565b610ecd83838360405180602001604052806000815250611624565b505050565b610eda611c22565b80600f8190555050565b610eec611c22565b80600a9080519060200190610f0292919061267b565b5050565b6000610f1182611a8a565b9050919050565b60008073ffffffffffffffffffffffffffffffffffffffff168273ffffffffffffffffffffffffffffffffffffffff161415610f80576040517f8f4eb60400000000000000000000000000000000000000000000000000000000815260040160405180910390fd5b67ffffffffffffffff600560008473ffffffffffffffffffffffffffffffffffffffff1673ffffffffffffffffffffffffffffffffffffffff16815260200190815260200160002054169050919050565b610fd9611c22565b610fe36000611cfa565b565b610fed611c22565b6001600d60016101000a81548160ff021916908315150217905550565b611012611ca0565b61101a611c22565b60115481111561105f576040517f08c379a0000000000000000000000000000000000000000000000000000000008152600401611056906130fc565b60405180910390fd5b6110698282611dc0565b806011546110779190613311565b601181905550611085611cf0565b5050565b600c805461109690613405565b80601f01602080910402602001604051908101604052809291908181526020018280546110c290613405565b801561110f5780601f106110e45761010080835404028352916020019161110f565b820191906000526020600020905b8154815290600101906020018083116110f257829003601f168201915b505050505081565b6000600860009054906101000a900473ffffffffffffffffffffffffffffffffffffffff16905090565b60606003805461115090613405565b80601f016020809104026020016040519081016040528092919081815260200182805461117c90613405565b80156111c95780601f1061119e576101008083540402835291602001916111c9565b820191906000526020600020905b8154815290600101906020018083116111ac57829003601f168201915b5050505050905090565b6111db611c22565b8060108190555050565b80600760006111f2611a79565b73ffffffffffffffffffffffffffffffffffffffff1673ffffffffffffffffffffffffffffffffffffffff16815260200190815260200160002060008473ffffffffffffffffffffffffffffffffffffffff1673ffffffffffffffffffffffffffffffffffffffff16815260200190815260200160002060006101000a81548160ff0219169083151502179055508173ffffffffffffffffffffffffffffffffffffffff1661129f611a79565b73ffffffffffffffffffffffffffffffffffffffff167f17307eab39ab6107e8899845ad3d59bd9653f200f220920489ca2b5937696c31836040516112e49190612fa4565b60405180910390a35050565b8282601354611367838380806020026020016040519081016040528093929190818152602001838360200280828437600081840152601f19601f82011690508083019250505050505050823360405160200161134c9190612edc565b60405160208183030381529060405280519060200120611dde565b6113a6576040517f08c379a000000000000000000000000000000000000000000000000000000000815260040161139d906130bc565b60405180910390fd5b6113ae611ca0565b83600d60009054906101000a900460ff166113fe576040517f08c379a00000000000000000000000000000000000000000000000000000000081526004016113f59061305c565b60405180910390fd5b84601154600e5461140f9190613311565b81611418610ac5565b6114229190613261565b1115611463576040517f08c379a000000000000000000000000000000000000000000000000000000000815260040161145a9061309c565b60405180910390fd5b8580600f5461147291906132b7565b3410156114b4576040517f08c379a00000000000000000000000000000000000000000000000000000000081526004016114ab9061301c565b60405180910390fd5b60105487601260003373ffffffffffffffffffffffffffffffffffffffff1673ffffffffffffffffffffffffffffffffffffffff168152602001908152602001600020546115029190613261565b1115611543576040517f08c379a000000000000000000000000000000000000000000000000000000000815260040161153a90612ffc565b60405180910390fd5b3273ffffffffffffffffffffffffffffffffffffffff163373ffffffffffffffffffffffffffffffffffffffff16146115b1576040517f08c379a00000000000000000000000000000000000000000000000000000000081526004016115a89061307c565b60405180910390fd5b86601260003373ffffffffffffffffffffffffffffffffffffffff1673ffffffffffffffffffffffffffffffffffffffff16815260200190815260200160002060008282546116009190613261565b925050819055506116113388611dc0565b50505061161c611cf0565b505050505050565b61162f848484610adc565b60008373ffffffffffffffffffffffffffffffffffffffff163b146116915761165a84848484611df5565b611690576040517fd1a57ed600000000000000000000000000000000000000000000000000000000815260040160405180910390fd5b5b50505050565b61169f611c22565b80600c90805190602001906116b592919061267b565b5050565b6116c1611c22565b8060138190555050565b600b80546116d890613405565b80601f016020809104026020016040519081016040528092919081815260200182805461170490613405565b80156117515780601f1061172657610100808354040283529160200191611751565b820191906000526020600020905b81548152906001019060200180831161173457829003601f168201915b505050505081565b606061176482611a1a565b6117a3576040517f08c379a000000000000000000000000000000000000000000000000000000000815260040161179a9061311c565b60405180910390fd5b60001515600d60019054906101000a900460ff161515141561185157600c80546117cc90613405565b80601f01602080910402602001604051908101604052809291908181526020018280546117f890613405565b80156118455780601f1061181a57610100808354040283529160200191611845565b820191906000526020600020905b81548152906001019060200180831161182857829003601f168201915b505050505090506118ad565b600061185b611f55565b9050600081511161187b57604051806020016040528060008152506118a9565b8061188584611fe7565b600b60405160200161189993929190612ef7565b6040516020818303038152906040525b9150505b919050565b600d60019054906101000a900460ff1681565b6118cd611c22565b6000601181905550565b60105481565b6000600760008473ffffffffffffffffffffffffffffffffffffffff1673ffffffffffffffffffffffffffffffffffffffff16815260200190815260200160002060008373ffffffffffffffffffffffffffffffffffffffff1673ffffffffffffffffffffffffffffffffffffffff16815260200190815260200160002060009054906101000a900460ff16905092915050565b611979611c22565b80600d60006101000a81548160ff02191690831515021790555050565b61199e611c22565b600073ffffffffffffffffffffffffffffffffffffffff168173ffffffffffffffffffffffffffffffffffffffff161415611a0e576040517f08c379a0000000000000000000000000000000000000000000000000000000008152600401611a059061303c565b60405180910390fd5b611a1781611cfa565b50565b600081611a25611a81565b11158015611a34575060005482105b8015611a72575060007c0100000000000000000000000000000000000000000000000000000000600460008581526020019081526020016000205416145b9050919050565b600033905090565b60006001905090565b60008082905080611a99611a81565b11611b2157600054811015611b205760006004600083815260200190815260200160002054905060007c010000000000000000000000000000000000000000000000000000000082161415611b1e575b6000811415611b14576004600083600190039350838152602001908152602001600020549050611ae9565b8092505050611b53565b505b5b6040517fdf2d9b4200000000000000000000000000000000000000000000000000000000815260040160405180910390fd5b919050565b60008060006006600085815260200190815260200160002090508092508254915050915091565b600073ffffffffffffffffffffffffffffffffffffffff8316925073ffffffffffffffffffffffffffffffffffffffff821691508382148383141790509392505050565b50505050565b60008060e883901c905060e8611be086868461210b565b62ffffff16901b9150509392505050565b600073ffffffffffffffffffffffffffffffffffffffff83169250814260a01b178317905092915050565b50505050565b611c2a612114565b73ffffffffffffffffffffffffffffffffffffffff16611c48611117565b73ffffffffffffffffffffffffffffffffffffffff1614611c9e576040517f08c379a0000000000000000000000000000000000000000000000000000000008152600401611c95906130dc565b60405180910390fd5b565b60026009541415611ce6576040517f08c379a0000000000000000000000000000000000000000000000000000000008152600401611cdd9061313c565b60405180910390fd5b6002600981905550565b6001600981905550565b6000600860009054906101000a900473ffffffffffffffffffffffffffffffffffffffff16905081600860006101000a81548173ffffffffffffffffffffffffffffffffffffffff021916908373ffffffffffffffffffffffffffffffffffffffff1602179055508173ffffffffffffffffffffffffffffffffffffffff168173ffffffffffffffffffffffffffffffffffffffff167f8be0079c531659141344cd1fd0a4f28419497f9722a3daafe3b4186f6b6457e060405160405180910390a35050565b611dda82826040518060200160405280600081525061211c565b5050565b600082611deb85846121b9565b1490509392505050565b60008373ffffffffffffffffffffffffffffffffffffffff1663150b7a02611e1b611a79565b8786866040518563ffffffff1660e01b8152600401611e3d9493929190612f58565b602060405180830381600087803b158015611e5757600080fd5b505af1925050508015611e8857506040513d601f19601f82011682018060405250810190611e859190612b30565b60015b611f02573d8060008114611eb8576040519150601f19603f3d011682016040523d82523d6000602084013e611ebd565b606091505b50600081511415611efa576040517fd1a57ed600000000000000000000000000000000000000000000000000000000815260040160405180910390fd5b805181602001fd5b63150b7a0260e01b7bffffffffffffffffffffffffffffffffffffffffffffffffffffffff1916817bffffffffffffffffffffffffffffffffffffffffffffffffffffffff191614915050949350505050565b6060600a8054611f6490613405565b80601f0160208091040260200160405190810160405280929190818152602001828054611f9090613405565b8015611fdd5780601f10611fb257610100808354040283529160200191611fdd565b820191906000526020600020905b815481529060010190602001808311611fc057829003601f168201915b5050505050905090565b606060006001611ff684612235565b01905060008167ffffffffffffffff81111561203b577f4e487b7100000000000000000000000000000000000000000000000000000000600052604160045260246000fd5b6040519080825280601f01601f19166020018201604052801561206d5781602001600182028036833780820191505090505b509050600082602001820190505b600115612100578080600190039150507f3031323334353637383961626364656600000000000000000000000000000000600a86061a8153600a85816120ea577f4e487b7100000000000000000000000000000000000000000000000000000000600052601260045260246000fd5b04945060008514156120fb57612100565b61207b565b819350505050919050565b60009392505050565b600033905090565b612126838361246c565b60008373ffffffffffffffffffffffffffffffffffffffff163b146121b457600080549050600083820390505b6121666000868380600101945086611df5565b61219c576040517fd1a57ed600000000000000000000000000000000000000000000000000000000815260040160405180910390fd5b8181106121535781600054146121b157600080fd5b50505b505050565b60008082905060005b845181101561222a5761221582868381518110612208577f4e487b7100000000000000000000000000000000000000000000000000000000600052603260045260246000fd5b6020026020010151612629565b9150808061222290613468565b9150506121c2565b508091505092915050565b600080600090507a184f03e93ff9f4daa797ed6e38ed64bf6a1f01000000000000000083106122b9577a184f03e93ff9f4daa797ed6e38ed64bf6a1f01000000000000000083816122af577f4e487b7100000000000000000000000000000000000000000000000000000000600052601260045260246000fd5b0492506040810190505b6d04ee2d6d415b85acef8100000000831061231c576d04ee2d6d415b85acef81000000008381612312577f4e487b7100000000000000000000000000000000000000000000000000000000600052601260045260246000fd5b0492506020810190505b662386f26fc10000831061237157662386f26fc100008381612367577f4e487b7100000000000000000000000000000000000000000000000000000000600052601260045260246000fd5b0492506010810190505b6305f5e10083106123c0576305f5e10083816123b6577f4e487b7100000000000000000000000000000000000000000000000000000000600052601260045260246000fd5b0492506008810190505b612710831061240b576127108381612401577f4e487b7100000000000000000000000000000000000000000000000000000000600052601260045260246000fd5b0492506004810190505b60648310612454576064838161244a577f4e487b7100000000000000000000000000000000000000000000000000000000600052601260045260246000fd5b0492506002810190505b600a8310612463576001810190505b80915050919050565b60008054905060008214156124ad576040517fb562e8dd00000000000000000000000000000000000000000000000000000000815260040160405180910390fd5b6124ba6000848385611bc3565b600160406001901b178202600560008573ffffffffffffffffffffffffffffffffffffffff1673ffffffffffffffffffffffffffffffffffffffff16815260200190815260200160002060008282540192505081905550612531836125226000866000611bc9565b61252b85612654565b17611bf1565b6004600083815260200190815260200160002081905550600080838301905073ffffffffffffffffffffffffffffffffffffffff85169150828260007fddf252ad1be2c89b69c2b068fc378daa952ba7f163c4a11628f55a4df523b3ef600080a4600183015b8181146125d257808360007fddf252ad1be2c89b69c2b068fc378daa952ba7f163c4a11628f55a4df523b3ef600080a4600181019050612597565b50600082141561260e576040517f2e07630000000000000000000000000000000000000000000000000000000000815260040160405180910390fd5b8060008190555050506126246000848385611c1c565b505050565b60008183106126415761263c8284612664565b61264c565b61264b8383612664565b5b905092915050565b60006001821460e11b9050919050565b600082600052816020526040600020905092915050565b82805461268790613405565b90600052602060002090601f0160209004810192826126a957600085556126f0565b82601f106126c257805160ff19168380011785556126f0565b828001600101855582156126f0579182015b828111156126ef5782518255916020019190600101906126d4565b5b5090506126fd9190612701565b5090565b5b8082111561271a576000816000905550600101612702565b5090565b600061273161272c8461319c565b613177565b90508281526020810184848401111561274957600080fd5b6127548482856133c3565b509392505050565b600061276f61276a846131cd565b613177565b90508281526020810184848401111561278757600080fd5b6127928482856133c3565b509392505050565b6000813590506127a9816137de565b92915050565b60008083601f8401126127c157600080fd5b8235905067ffffffffffffffff8111156127da57600080fd5b6020830191508360208202830111156127f257600080fd5b9250929050565b600081359050612808816137f5565b92915050565b60008135905061281d8161380c565b92915050565b60008135905061283281613823565b92915050565b60008151905061284781613823565b92915050565b600082601f83011261285e57600080fd5b813561286e84826020860161271e565b91505092915050565b600082601f83011261288857600080fd5b813561289884826020860161275c565b91505092915050565b6000813590506128b08161383a565b92915050565b6000602082840312156128c857600080fd5b60006128d68482850161279a565b91505092915050565b600080604083850312156128f257600080fd5b60006129008582860161279a565b92505060206129118582860161279a565b9150509250929050565b60008060006060848603121561293057600080fd5b600061293e8682870161279a565b935050602061294f8682870161279a565b9250506040612960868287016128a1565b9150509250925092565b6000806000806080858703121561298057600080fd5b600061298e8782880161279a565b945050602061299f8782880161279a565b93505060406129b0878288016128a1565b925050606085013567ffffffffffffffff8111156129cd57600080fd5b6129d98782880161284d565b91505092959194509250565b600080604083850312156129f857600080fd5b6000612a068582860161279a565b9250506020612a17858286016127f9565b9150509250929050565b60008060408385031215612a3457600080fd5b6000612a428582860161279a565b9250506020612a53858286016128a1565b9150509250929050565b600080600060408486031215612a7257600080fd5b600084013567ffffffffffffffff811115612a8c57600080fd5b612a98868287016127af565b93509350506020612aab868287016128a1565b9150509250925092565b600060208284031215612ac757600080fd5b6000612ad5848285016127f9565b91505092915050565b600060208284031215612af057600080fd5b6000612afe8482850161280e565b91505092915050565b600060208284031215612b1957600080fd5b6000612b2784828501612823565b91505092915050565b600060208284031215612b4257600080fd5b6000612b5084828501612838565b91505092915050565b600060208284031215612b6b57600080fd5b600082013567ffffffffffffffff811115612b8557600080fd5b612b9184828501612877565b91505092915050565b600060208284031215612bac57600080fd5b6000612bba848285016128a1565b91505092915050565b612bcc81613345565b82525050565b612be3612bde82613345565b6134b1565b82525050565b612bf281613357565b82525050565b612c0181613363565b82525050565b6000612c1282613213565b612c1c8185613229565b9350612c2c8185602086016133d2565b612c3581613562565b840191505092915050565b6000612c4b8261321e565b612c558185613245565b9350612c658185602086016133d2565b612c6e81613562565b840191505092915050565b6000612c848261321e565b612c8e8185613256565b9350612c9e8185602086016133d2565b80840191505092915050565b60008154612cb781613405565b612cc18186613256565b94506001821660008114612cdc5760018114612ced57612d20565b60ff19831686528186019350612d20565b612cf6856131fe565b60005b83811015612d1857815481890152600182019150602081019050612cf9565b838801955050505b50505092915050565b6000612d36601f83613245565b9150612d4182613580565b602082019050919050565b6000612d59601783613245565b9150612d64826135a9565b602082019050919050565b6000612d7c602683613245565b9150612d87826135d2565b604082019050919050565b6000612d9f601383613245565b9150612daa82613621565b602082019050919050565b6000612dc2601483613245565b9150612dcd8261364a565b602082019050919050565b6000612de5602883613245565b9150612df082613673565b604082019050919050565b6000612e08601b83613245565b9150612e13826136c2565b602082019050919050565b6000612e2b602083613245565b9150612e36826136eb565b602082019050919050565b6000612e4e602b83613245565b9150612e5982613714565b604082019050919050565b6000612e71602f83613245565b9150612e7c82613763565b604082019050919050565b6000612e9460008361323a565b9150612e9f826137b2565b600082019050919050565b6000612eb7601f83613245565b9150612ec2826137b5565b602082019050919050565b612ed6816133b9565b82525050565b6000612ee88284612bd2565b60148201915081905092915050565b6000612f038286612c79565b9150612f0f8285612c79565b9150612f1b8284612caa565b9150819050949350505050565b6000612f3382612e87565b9150819050919050565b6000602082019050612f526000830184612bc3565b92915050565b6000608082019050612f6d6000830187612bc3565b612f7a6020830186612bc3565b612f876040830185612ecd565b8181036060830152612f998184612c07565b905095945050505050565b6000602082019050612fb96000830184612be9565b92915050565b6000602082019050612fd46000830184612bf8565b92915050565b60006020820190508181036000830152612ff48184612c40565b905092915050565b6000602082019050818103600083015261301581612d29565b9050919050565b6000602082019050818103600083015261303581612d4c565b9050919050565b6000602082019050818103600083015261305581612d6f565b9050919050565b6000602082019050818103600083015261307581612d92565b9050919050565b6000602082019050818103600083015261309581612db5565b9050919050565b600060208201905081810360008301526130b581612dd8565b9050919050565b600060208201905081810360008301526130d581612dfb565b9050919050565b600060208201905081810360008301526130f581612e1e565b9050919050565b6000602082019050818103600083015261311581612e41565b9050919050565b6000602082019050818103600083015261313581612e64565b9050919050565b6000602082019050818103600083015261315581612eaa565b9050919050565b60006020820190506131716000830184612ecd565b92915050565b6000613181613192565b905061318d8282613437565b919050565b6000604051905090565b600067ffffffffffffffff8211156131b7576131b6613533565b5b6131c082613562565b9050602081019050919050565b600067ffffffffffffffff8211156131e8576131e7613533565b5b6131f182613562565b9050602081019050919050565b60008190508160005260206000209050919050565b600081519050919050565b600081519050919050565b600082825260208201905092915050565b600081905092915050565b600082825260208201905092915050565b600081905092915050565b600061326c826133b9565b9150613277836133b9565b9250827fffffffffffffffffffffffffffffffffffffffffffffffffffffffffffffffff038211156132ac576132ab6134d5565b5b828201905092915050565b60006132c2826133b9565b91506132cd836133b9565b9250817fffffffffffffffffffffffffffffffffffffffffffffffffffffffffffffffff0483118215151615613306576133056134d5565b5b828202905092915050565b600061331c826133b9565b9150613327836133b9565b92508282101561333a576133396134d5565b5b828203905092915050565b600061335082613399565b9050919050565b60008115159050919050565b6000819050919050565b60007fffffffff0000000000000000000000000000000000000000000000000000000082169050919050565b600073ffffffffffffffffffffffffffffffffffffffff82169050919050565b6000819050919050565b82818337600083830152505050565b60005b838110156133f05780820151818401526020810190506133d5565b838111156133ff576000848401525b50505050565b6000600282049050600182168061341d57607f821691505b6020821081141561343157613430613504565b5b50919050565b61344082613562565b810181811067ffffffffffffffff8211171561345f5761345e613533565b5b80604052505050565b6000613473826133b9565b91507fffffffffffffffffffffffffffffffffffffffffffffffffffffffffffffffff8214156134a6576134a56134d5565b5b600182019050919050565b60006134bc826134c3565b9050919050565b60006134ce82613573565b9050919050565b7f4e487b7100000000000000000000000000000000000000000000000000000000600052601160045260246000fd5b7f4e487b7100000000000000000000000000000000000000000000000000000000600052602260045260246000fd5b7f4e487b7100000000000000000000000000000000000000000000000000000000600052604160045260246000fd5b6000601f19601f8301169050919050565b60008160601b9050919050565b7f596f7520616c7265616479206d696e74656420796f75722053776f7264732100600082015250565b7f4e6f7420656e6f7567682045544820746f206d696e7421000000000000000000600082015250565b7f4f776e61626c653a206e6577206f776e657220697320746865207a65726f206160008201527f6464726573730000000000000000000000000000000000000000000000000000602082015250565b7f4d696e74206973206e6f74206163746976652100000000000000000000000000600082015250565b7f636f6e7472616374732063616e2774206d696e74000000000000000000000000600082015250565b7f526571756573746564206d696e7420636f756e7420657863656564732074686560008201527f20737570706c7921000000000000000000000000000000000000000000000000602082015250565b7f41646472657373206973206e6f742077686974656c6973746564210000000000600082015250565b7f4f776e61626c653a2063616c6c6572206973206e6f7420746865206f776e6572600082015250565b7f526571756573746564206d696e7420636f756e7420657863656564732072657360008201527f65727665206c696d697421000000000000000000000000000000000000000000602082015250565b7f4552433732314d657461646174613a2055524920717565727920666f72206e6f60008201527f6e6578697374656e7420746f6b656e0000000000000000000000000000000000602082015250565b50565b7f5265656e7472616e637947756172643a207265656e7472616e742063616c6c00600082015250565b6137e781613345565b81146137f257600080fd5b50565b6137fe81613357565b811461380957600080fd5b50565b61381581613363565b811461382057600080fd5b50565b61382c8161336d565b811461383757600080fd5b50565b613843816133b9565b811461384e57600080fd5b5056fea26469706673582212203aa7b357b2f482d98723c844c80fe6626bb920e7aec7e3daa981bea3ea50d35964736f6c63430008040033",
  "linkReferences": {},
  "deployedLinkReferences": {}
}