{
  "_format": "hh-sol-artifact-1",
  "contractName": "Test",
  "sourceName": "contracts/Test.sol",
  "abi": [
    {
      "inputs": [],
      "stateMutability": "nonpayable",
      "type": "constructor"
    },
    {
      "inputs": [],
      "name": "ApprovalCallerNotOwnerNorApproved",
      "type": "error"
    },
    {
      "inputs": [],
      "name": "ApprovalQueryForNonexistentToken",
      "type": "error"
    },
    {
      "inputs": [],
      "name": "BalanceQueryForZeroAddress",
      "type": "error"
    },
    {
      "inputs": [],
      "name": "MintERC2309QuantityExceedsLimit",
      "type": "error"
    },
    {
      "inputs": [],
      "name": "MintToZeroAddress",
      "type": "error"
    },
    {
      "inputs": [],
      "name": "MintZeroQuantity",
      "type": "error"
    },
    {
      "inputs": [],
      "name": "OwnerQueryForNonexistentToken",
      "type": "error"
    },
    {
      "inputs": [],
      "name": "OwnershipNotInitializedForExtraData",
      "type": "error"
    },
    {
      "inputs": [],
      "name": "TransferCallerNotOwnerNorApproved",
      "type": "error"
    },
    {
      "inputs": [],
      "name": "TransferFromIncorrectOwner",
      "type": "error"
    },
    {
      "inputs": [],
      "name": "TransferToNonERC721ReceiverImplementer",
      "type": "error"
    },
    {
      "inputs": [],
      "name": "TransferToZeroAddress",
      "type": "error"
    },
    {
      "inputs": [],
      "name": "URIQueryForNonexistentToken",
      "type": "error"
    },
    {
      "anonymous": false,
      "inputs": [
        {
          "indexed": true,
          "internalType": "address",
          "name": "owner",
          "type": "address"
        },
        {
          "indexed": true,
          "internalType": "address",
          "name": "approved",
          "type": "address"
        },
        {
          "indexed": true,
          "internalType": "uint256",
          "name": "tokenId",
          "type": "uint256"
        }
      ],
      "name": "Approval",
      "type": "event"
    },
    {
      "anonymous": false,
      "inputs": [
        {
          "indexed": true,
          "internalType": "address",
          "name": "owner",
          "type": "address"
        },
        {
          "indexed": true,
          "internalType": "address",
          "name": "operator",
          "type": "address"
        },
        {
          "indexed": false,
          "internalType": "bool",
          "name": "approved",
          "type": "bool"
        }
      ],
      "name": "ApprovalForAll",
      "type": "event"
    },
    {
      "anonymous": false,
      "inputs": [
        {
          "indexed": true,
          "internalType": "uint256",
          "name": "fromTokenId",
          "type": "uint256"
        },
        {
          "indexed": false,
          "internalType": "uint256",
          "name": "toTokenId",
          "type": "uint256"
        },
        {
          "indexed": true,
          "internalType": "address",
          "name": "from",
          "type": "address"
        },
        {
          "indexed": true,
          "internalType": "address",
          "name": "to",
          "type": "address"
        }
      ],
      "name": "ConsecutiveTransfer",
      "type": "event"
    },
    {
      "anonymous": false,
      "inputs": [
        {
          "indexed": true,
          "internalType": "address",
          "name": "previousOwner",
          "type": "address"
        },
        {
          "indexed": true,
          "internalType": "address",
          "name": "newOwner",
          "type": "address"
        }
      ],
      "name": "OwnershipTransferred",
      "type": "event"
    },
    {
      "anonymous": false,
      "inputs": [
        {
          "indexed": true,
          "internalType": "address",
          "name": "from",
          "type": "address"
        },
        {
          "indexed": true,
          "internalType": "address",
          "name": "to",
          "type": "address"
        },
        {
          "indexed": true,
          "internalType": "uint256",
          "name": "tokenId",
          "type": "uint256"
        }
      ],
      "name": "Transfer",
      "type": "event"
    },
    {
      "inputs": [
        {
          "internalType": "address",
          "name": "to",
          "type": "address"
        },
        {
          "internalType": "uint256",
          "name": "tokenId",
          "type": "uint256"
        }
      ],
      "name": "approve",
      "outputs": [],
      "stateMutability": "payable",
      "type": "function"
    },
    {
      "inputs": [
        {
          "internalType": "address",
          "name": "owner",
          "type": "address"
        }
      ],
      "name": "balanceOf",
      "outputs": [
        {
          "internalType": "uint256",
          "name": "",
          "type": "uint256"
        }
      ],
      "stateMutability": "view",
      "type": "function"
    },
    {
      "inputs": [],
      "name": "baseExtension",
      "outputs": [
        {
          "internalType": "string",
          "name": "",
          "type": "string"
        }
      ],
      "stateMutability": "view",
      "type": "function"
    },
    {
      "inputs": [],
      "name": "cost",
      "outputs": [
        {
          "internalType": "uint256",
          "name": "",
          "type": "uint256"
        }
      ],
      "stateMutability": "view",
      "type": "function"
    },
    {
      "inputs": [],
      "name": "costWl",
      "outputs": [
        {
          "internalType": "uint256",
          "name": "",
          "type": "uint256"
        }
      ],
      "stateMutability": "view",
      "type": "function"
    },
    {
      "inputs": [
        {
          "internalType": "uint256",
          "name": "tokenId",
          "type": "uint256"
        }
      ],
      "name": "getApproved",
      "outputs": [
        {
          "internalType": "address",
          "name": "",
          "type": "address"
        }
      ],
      "stateMutability": "view",
      "type": "function"
    },
    {
      "inputs": [],
      "name": "hiddenURI",
      "outputs": [
        {
          "internalType": "string",
          "name": "",
          "type": "string"
        }
      ],
      "stateMutability": "view",
      "type": "function"
    },
    {
      "inputs": [
        {
          "internalType": "address",
          "name": "owner",
          "type": "address"
        },
        {
          "internalType": "address",
          "name": "operator",
          "type": "address"
        }
      ],
      "name": "isApprovedForAll",
      "outputs": [
        {
          "internalType": "bool",
          "name": "",
          "type": "bool"
        }
      ],
      "stateMutability": "view",
      "type": "function"
    },
    {
      "inputs": [],
      "name": "merkleRoot",
      "outputs": [
        {
          "internalType": "bytes32",
          "name": "",
          "type": "bytes32"
        }
      ],
      "stateMutability": "view",
      "type": "function"
    },
    {
      "inputs": [
        {
          "internalType": "uint256",
          "name": "_count",
          "type": "uint256"
        }
      ],
      "name": "mintPublic",
      "outputs": [],
      "stateMutability": "payable",
      "type": "function"
    },
    {
      "inputs": [
        {
          "internalType": "bytes32[]",
          "name": "_merkleProof",
          "type": "bytes32[]"
        },
        {
          "internalType": "uint256",
          "name": "_count",
          "type": "uint256"
        }
      ],
      "name": "mintWhitelist",
      "outputs": [],
      "stateMutability": "payable",
      "type": "function"
    },
    {
      "inputs": [
        {
          "internalType": "address",
          "name": "",
          "type": "address"
        }
      ],
      "name": "minted",
      "outputs": [
        {
          "internalType": "uint256",
          "name": "",
          "type": "uint256"
        }
      ],
      "stateMutability": "view",
      "type": "function"
    },
    {
      "inputs": [
        {
          "internalType": "address",
          "name": "",
          "type": "address"
        }
      ],
      "name": "mintedWls",
      "outputs": [
        {
          "internalType": "uint256",
          "name": "",
          "type": "uint256"
        }
      ],
      "stateMutability": "view",
      "type": "function"
    },
    {
      "inputs": [],
      "name": "mints",
      "outputs": [
        {
          "internalType": "uint256",
          "name": "",
          "type": "uint256"
        }
      ],
      "stateMutability": "view",
      "type": "function"
    },
    {
      "inputs": [],
      "name": "mintsWl",
      "outputs": [
        {
          "internalType": "uint256",
          "name": "",
          "type": "uint256"
        }
      ],
      "stateMutability": "view",
      "type": "function"
    },
    {
      "inputs": [],
      "name": "name",
      "outputs": [
        {
          "internalType": "string",
          "name": "",
          "type": "string"
        }
      ],
      "stateMutability": "view",
      "type": "function"
    },
    {
      "inputs": [],
      "name": "owner",
      "outputs": [
        {
          "internalType": "address",
          "name": "",
          "type": "address"
        }
      ],
      "stateMutability": "view",
      "type": "function"
    },
    {
      "inputs": [
        {
          "internalType": "uint256",
          "name": "tokenId",
          "type": "uint256"
        }
      ],
      "name": "ownerOf",
      "outputs": [
        {
          "internalType": "address",
          "name": "",
          "type": "address"
        }
      ],
      "stateMutability": "view",
      "type": "function"
    },
    {
      "inputs": [],
      "name": "publicMintActive",
      "outputs": [
        {
          "internalType": "bool",
          "name": "",
          "type": "bool"
        }
      ],
      "stateMutability": "view",
      "type": "function"
    },
    {
      "inputs": [],
      "name": "releaseReserve",
      "outputs": [],
      "stateMutability": "nonpayable",
      "type": "function"
    },
    {
      "inputs": [],
      "name": "renounceOwnership",
      "outputs": [],
      "stateMutability": "nonpayable",
      "type": "function"
    },
    {
      "inputs": [
        {
          "internalType": "address",
          "name": "owner",
          "type": "address"
        },
        {
          "internalType": "uint256",
          "name": "_count",
          "type": "uint256"
        }
      ],
      "name": "reserveTokens",
      "outputs": [],
      "stateMutability": "nonpayable",
      "type": "function"
    },
    {
      "inputs": [],
      "name": "revealLive",
      "outputs": [
        {
          "internalType": "bool",
          "name": "",
          "type": "bool"
        }
      ],
      "stateMutability": "view",
      "type": "function"
    },
    {
      "inputs": [
        {
          "internalType": "address",
          "name": "from",
          "type": "address"
        },
        {
          "internalType": "address",
          "name": "to",
          "type": "address"
        },
        {
          "internalType": "uint256",
          "name": "tokenId",
          "type": "uint256"
        }
      ],
      "name": "safeTransferFrom",
      "outputs": [],
      "stateMutability": "payable",
      "type": "function"
    },
    {
      "inputs": [
        {
          "internalType": "address",
          "name": "from",
          "type": "address"
        },
        {
          "internalType": "address",
          "name": "to",
          "type": "address"
        },
        {
          "internalType": "uint256",
          "name": "tokenId",
          "type": "uint256"
        },
        {
          "internalType": "bytes",
          "name": "_data",
          "type": "bytes"
        }
      ],
      "name": "safeTransferFrom",
      "outputs": [],
      "stateMutability": "payable",
      "type": "function"
    },
    {
      "inputs": [
        {
          "internalType": "bool",
          "name": "_wlMintActive",
          "type": "bool"
        }
      ],
      "name": "seWlMintActive",
      "outputs": [],
      "stateMutability": "nonpayable",
      "type": "function"
    },
    {
      "inputs": [
        {
          "internalType": "address",
          "name": "operator",
          "type": "address"
        },
        {
          "internalType": "bool",
          "name": "approved",
          "type": "bool"
        }
      ],
      "name": "setApprovalForAll",
      "outputs": [],
      "stateMutability": "nonpayable",
      "type": "function"
    },
    {
      "inputs": [
        {
          "internalType": "string",
          "name": "uri",
          "type": "string"
        }
      ],
      "name": "setBaseURI",
      "outputs": [],
      "stateMutability": "nonpayable",
      "type": "function"
    },
    {
      "inputs": [
        {
          "internalType": "uint256",
          "name": "_cost",
          "type": "uint256"
        }
      ],
      "name": "setCost",
      "outputs": [],
      "stateMutability": "nonpayable",
      "type": "function"
    },
    {
      "inputs": [
        {
          "internalType": "uint256",
          "name": "_costWl",
          "type": "uint256"
        }
      ],
      "name": "setCostWl",
      "outputs": [],
      "stateMutability": "nonpayable",
      "type": "function"
    },
    {
      "inputs": [
        {
          "internalType": "string",
          "name": "_hiddenURI",
          "type": "string"
        }
      ],
      "name": "setHiddenURI",
      "outputs": [],
      "stateMutability": "nonpayable",
      "type": "function"
    },
    {
      "inputs": [
        {
          "internalType": "bool",
          "name": "_publicMintActive",
          "type": "bool"
        }
      ],
      "name": "setMintActive",
      "outputs": [],
      "stateMutability": "nonpayable",
      "type": "function"
    },
    {
      "inputs": [
        {
          "internalType": "uint256",
          "name": "_mints",
          "type": "uint256"
        }
      ],
      "name": "setMintLimit",
      "outputs": [],
      "stateMutability": "nonpayable",
      "type": "function"
    },
    {
      "inputs": [],
      "name": "setReveal",
      "outputs": [],
      "stateMutability": "nonpayable",
      "type": "function"
    },
    {
      "inputs": [
        {
          "internalType": "bytes32",
          "name": "_merkleRoot",
          "type": "bytes32"
        }
      ],
      "name": "setWhitelistMerkleRoot",
      "outputs": [],
      "stateMutability": "nonpayable",
      "type": "function"
    },
    {
      "inputs": [
        {
          "internalType": "uint256",
          "name": "_mintsWl",
          "type": "uint256"
        }
      ],
      "name": "setWlMintLimit",
      "outputs": [],
      "stateMutability": "nonpayable",
      "type": "function"
    },
    {
      "inputs": [],
      "name": "supply",
      "outputs": [
        {
          "internalType": "uint256",
          "name": "",
          "type": "uint256"
        }
      ],
      "stateMutability": "view",
      "type": "function"
    },
    {
      "inputs": [
        {
          "internalType": "bytes4",
          "name": "interfaceId",
          "type": "bytes4"
        }
      ],
      "name": "supportsInterface",
      "outputs": [
        {
          "internalType": "bool",
          "name": "",
          "type": "bool"
        }
      ],
      "stateMutability": "view",
      "type": "function"
    },
    {
      "inputs": [],
      "name": "symbol",
      "outputs": [
        {
          "internalType": "string",
          "name": "",
          "type": "string"
        }
      ],
      "stateMutability": "view",
      "type": "function"
    },
    {
      "inputs": [
        {
          "internalType": "uint256",
          "name": "_tokenId",
          "type": "uint256"
        }
      ],
      "name": "tokenURI",
      "outputs": [
        {
          "internalType": "string",
          "name": "",
          "type": "string"
        }
      ],
      "stateMutability": "view",
      "type": "function"
    },
    {
      "inputs": [],
      "name": "totalSupply",
      "outputs": [
        {
          "internalType": "uint256",
          "name": "",
          "type": "uint256"
        }
      ],
      "stateMutability": "view",
      "type": "function"
    },
    {
      "inputs": [
        {
          "internalType": "address",
          "name": "from",
          "type": "address"
        },
        {
          "internalType": "address",
          "name": "to",
          "type": "address"
        },
        {
          "internalType": "uint256",
          "name": "tokenId",
          "type": "uint256"
        }
      ],
      "name": "transferFrom",
      "outputs": [],
      "stateMutability": "payable",
      "type": "function"
    },
    {
      "inputs": [
        {
          "internalType": "address",
          "name": "newOwner",
          "type": "address"
        }
      ],
      "name": "transferOwnership",
      "outputs": [],
      "stateMutability": "nonpayable",
      "type": "function"
    },
    {
      "inputs": [],
      "name": "withdraw",
      "outputs": [],
      "stateMutability": "payable",
      "type": "function"
    },
    {
      "inputs": [],
      "name": "wlMintActive",
      "outputs": [
        {
          "internalType": "bool",
          "name": "",
          "type": "bool"
        }
      ],
      "stateMutability": "view",
      "type": "function"
    }
  ],
  "bytecode": "0x60806040526040518060400160405280600581526020017f2e6a736f6e000000000000000000000000000000000000000000000000000000815250600b90805190602001906200005192919062000297565b506000600d60006101000a81548160ff0219169083151502179055506000600d60016101000a81548160ff0219169083151502179055506000600d60026101000a81548160ff021916908315150217905550610309600e55662386f26fc10000600f55662386f26fc1000060105560026011556002601255601e601355348015620000db57600080fd5b506040518060400160405280600481526020017f54657374000000000000000000000000000000000000000000000000000000008152506040518060400160405280600481526020017f546573740000000000000000000000000000000000000000000000000000000081525081600290805190602001906200016092919062000297565b5080600390805190602001906200017992919062000297565b506200018a620001c060201b60201c565b6000819055505050620001b2620001a6620001c960201b60201c565b620001d160201b60201c565b6001600981905550620003ac565b60006001905090565b600033905090565b6000600860009054906101000a900473ffffffffffffffffffffffffffffffffffffffff16905081600860006101000a81548173ffffffffffffffffffffffffffffffffffffffff021916908373ffffffffffffffffffffffffffffffffffffffff1602179055508173ffffffffffffffffffffffffffffffffffffffff168173ffffffffffffffffffffffffffffffffffffffff167f8be0079c531659141344cd1fd0a4f28419497f9722a3daafe3b4186f6b6457e060405160405180910390a35050565b828054620002a59062000347565b90600052602060002090601f016020900481019282620002c9576000855562000315565b82601f10620002e457805160ff191683800117855562000315565b8280016001018555821562000315579182015b8281111562000314578251825591602001919060010190620002f7565b5b50905062000324919062000328565b5090565b5b808211156200034357600081600090555060010162000329565b5090565b600060028204905060018216806200036057607f821691505b602082108114156200037757620003766200037d565b5b50919050565b7f4e487b7100000000000000000000000000000000000000000000000000000000600052602260045260246000fd5b613e6180620003bc6000396000f3fe6080604052600436106102725760003560e01c806378cf19e91161014f578063bbaac02f116100c1578063d838a8011161007a578063d838a801146108c6578063dfc7379d146108f1578063e985e9c51461091c578063ee1cc94414610959578063efd0cbf914610982578063f2fde38b1461099e57610272565b8063bbaac02f146107ca578063bd32fb66146107f3578063c66828621461081c578063c87b56dd14610847578063cee7896c14610884578063d3933ada146108af57610272565b80639e6a1d7d116101135780639e6a1d7d146106d8578063a22cb46514610701578063a6d612f91461072a578063b405f1d314610746578063b67c25a314610783578063b88d4fde146107ae57610272565b806378cf19e9146106055780638cc54e7f1461062e5780638da5cb5b1461065957806395d89b411461068457806395ea205f146106af57610272565b80633ccfd60b116101e857806355f804b3116101ac57806355f804b31461050b5780636352211e1461053457806370a082311461057157806370ae9893146105ae578063715018a6146105d757806376645315146105ee57610272565b80633ccfd60b146104665780633ee0638c1461047057806342842e0e1461049b57806344a0d68a146104b757806351222f33146104e057610272565b806313faede61161023a57806313faede61461036357806318160ddd1461038e5780631e7269c5146103b957806323b872dd146103f65780632c7407ec146104125780632eb4a7ab1461043b57610272565b806301ffc9a714610277578063047fc9aa146102b457806306fdde03146102df578063081812fc1461030a578063095ea7b314610347575b600080fd5b34801561028357600080fd5b5061029e60048036038101906102999190613009565b6109c7565b6040516102ab91906134ec565b60405180910390f35b3480156102c057600080fd5b506102c9610a59565b6040516102d691906136e4565b60405180910390f35b3480156102eb57600080fd5b506102f4610a5f565b6040516103019190613522565b60405180910390f35b34801561031657600080fd5b50610331600480360381019061032c919061309c565b610af1565b60405161033e9190613485565b60405180910390f35b610361600480360381019061035c9190612f23565b610b70565b005b34801561036f57600080fd5b50610378610cb4565b60405161038591906136e4565b60405180910390f35b34801561039a57600080fd5b506103a3610cba565b6040516103b091906136e4565b60405180910390f35b3480156103c557600080fd5b506103e060048036038101906103db9190612db8565b610cd1565b6040516103ed91906136e4565b60405180910390f35b610410600480360381019061040b9190612e1d565b610ce9565b005b34801561041e57600080fd5b506104396004803603810190610434919061309c565b61100e565b005b34801561044757600080fd5b50610450611020565b60405161045d9190613507565b60405180910390f35b61046e611026565b005b34801561047c57600080fd5b506104856110be565b60405161049291906136e4565b60405180910390f35b6104b560048036038101906104b09190612e1d565b6110c4565b005b3480156104c357600080fd5b506104de60048036038101906104d9919061309c565b6110e4565b005b3480156104ec57600080fd5b506104f56110f6565b60405161050291906134ec565b60405180910390f35b34801561051757600080fd5b50610532600480360381019061052d919061305b565b611109565b005b34801561054057600080fd5b5061055b6004803603810190610556919061309c565b61112b565b6040516105689190613485565b60405180910390f35b34801561057d57600080fd5b5061059860048036038101906105939190612db8565b61113d565b6040516105a591906136e4565b60405180910390f35b3480156105ba57600080fd5b506105d560048036038101906105d0919061309c565b6111f6565b005b3480156105e357600080fd5b506105ec611208565b005b3480156105fa57600080fd5b5061060361121c565b005b34801561061157600080fd5b5061062c60048036038101906106279190612f23565b611241565b005b34801561063a57600080fd5b506106436112c0565b6040516106509190613522565b60405180910390f35b34801561066557600080fd5b5061066e61134e565b60405161067b9190613485565b60405180910390f35b34801561069057600080fd5b50610699611378565b6040516106a69190613522565b60405180910390f35b3480156106bb57600080fd5b506106d660048036038101906106d19190612fb7565b61140a565b005b3480156106e457600080fd5b506106ff60048036038101906106fa919061309c565b61142f565b005b34801561070d57600080fd5b5061072860048036038101906107239190612ee7565b611441565b005b610744600480360381019061073f9190612f5f565b61154c565b005b34801561075257600080fd5b5061076d60048036038101906107689190612db8565b61187e565b60405161077a91906136e4565b60405180910390f35b34801561078f57600080fd5b50610798611896565b6040516107a591906134ec565b60405180910390f35b6107c860048036038101906107c39190612e6c565b6118a9565b005b3480156107d657600080fd5b506107f160048036038101906107ec919061305b565b61191c565b005b3480156107ff57600080fd5b5061081a60048036038101906108159190612fe0565b61193e565b005b34801561082857600080fd5b50610831611950565b60405161083e9190613522565b60405180910390f35b34801561085357600080fd5b5061086e6004803603810190610869919061309c565b6119de565b60405161087b9190613522565b60405180910390f35b34801561089057600080fd5b50610899611b37565b6040516108a691906134ec565b60405180910390f35b3480156108bb57600080fd5b506108c4611b4a565b005b3480156108d257600080fd5b506108db611b5c565b6040516108e891906136e4565b60405180910390f35b3480156108fd57600080fd5b50610906611b62565b60405161091391906136e4565b60405180910390f35b34801561092857600080fd5b50610943600480360381019061093e9190612de1565b611b68565b60405161095091906134ec565b60405180910390f35b34801561096557600080fd5b50610980600480360381019061097b9190612fb7565b611bfc565b005b61099c6004803603810190610997919061309c565b611c21565b005b3480156109aa57600080fd5b506109c560048036038101906109c09190612db8565b611e98565b005b60006301ffc9a760e01b827bffffffffffffffffffffffffffffffffffffffffffffffffffffffff19161480610a2257506380ac58cd60e01b827bffffffffffffffffffffffffffffffffffffffffffffffffffffffff1916145b80610a525750635b5e139f60e01b827bffffffffffffffffffffffffffffffffffffffffffffffffffffffff1916145b9050919050565b600e5481565b606060028054610a6e9061398d565b80601f0160208091040260200160405190810160405280929190818152602001828054610a9a9061398d565b8015610ae75780601f10610abc57610100808354040283529160200191610ae7565b820191906000526020600020905b815481529060010190602001808311610aca57829003601f168201915b5050505050905090565b6000610afc82611f1c565b610b32576040517fcf4700e400000000000000000000000000000000000000000000000000000000815260040160405180910390fd5b6006600083815260200190815260200160002060000160009054906101000a900473ffffffffffffffffffffffffffffffffffffffff169050919050565b6000610b7b8261112b565b90508073ffffffffffffffffffffffffffffffffffffffff16610b9c611f7b565b73ffffffffffffffffffffffffffffffffffffffff1614610bff57610bc881610bc3611f7b565b611b68565b610bfe576040517fcfb3b94200000000000000000000000000000000000000000000000000000000815260040160405180910390fd5b5b826006600084815260200190815260200160002060000160006101000a81548173ffffffffffffffffffffffffffffffffffffffff021916908373ffffffffffffffffffffffffffffffffffffffff160217905550818373ffffffffffffffffffffffffffffffffffffffff168273ffffffffffffffffffffffffffffffffffffffff167f8c5be1e5ebec7d5bd14f71427d1e84f3dd0314c0f7b2291e5b200ac8c7c3b92560405160405180910390a4505050565b600f5481565b6000610cc4611f83565b6001546000540303905090565b60156020528060005260406000206000915090505481565b6000610cf482611f8c565b90508373ffffffffffffffffffffffffffffffffffffffff168173ffffffffffffffffffffffffffffffffffffffff1614610d5b576040517fa114810000000000000000000000000000000000000000000000000000000000815260040160405180910390fd5b600080610d678461205a565b91509150610d7d8187610d78611f7b565b612081565b610dc957610d9286610d8d611f7b565b611b68565b610dc8576040517f59c896be00000000000000000000000000000000000000000000000000000000815260040160405180910390fd5b5b600073ffffffffffffffffffffffffffffffffffffffff168573ffffffffffffffffffffffffffffffffffffffff161415610e30576040517fea553b3400000000000000000000000000000000000000000000000000000000815260040160405180910390fd5b610e3d86868660016120c5565b8015610e4857600082555b600560008773ffffffffffffffffffffffffffffffffffffffff1673ffffffffffffffffffffffffffffffffffffffff168152602001908152602001600020600081546001900391905081905550600560008673ffffffffffffffffffffffffffffffffffffffff1673ffffffffffffffffffffffffffffffffffffffff1681526020019081526020016000206000815460010191905081905550610f1685610ef28888876120cb565b7c0200000000000000000000000000000000000000000000000000000000176120f3565b600460008681526020019081526020016000208190555060007c020000000000000000000000000000000000000000000000000000000084161415610f9e576000600185019050600060046000838152602001908152602001600020541415610f9c576000548114610f9b578360046000838152602001908152602001600020819055505b5b505b838573ffffffffffffffffffffffffffffffffffffffff168773ffffffffffffffffffffffffffffffffffffffff167fddf252ad1be2c89b69c2b068fc378daa952ba7f163c4a11628f55a4df523b3ef60405160405180910390a4611006868686600161211e565b505050505050565b611016612124565b8060108190555050565b60165481565b61102e612124565b6110366121a2565b600061104061134e565b73ffffffffffffffffffffffffffffffffffffffff164760405161106390613470565b60006040518083038185875af1925050503d80600081146110a0576040519150601f19603f3d011682016040523d82523d6000602084013e6110a5565b606091505b50509050806110b357600080fd5b506110bc6121f2565b565b60105481565b6110df838383604051806020016040528060008152506118a9565b505050565b6110ec612124565b80600f8190555050565b600d60009054906101000a900460ff1681565b611111612124565b80600a9080519060200190611127929190612b7d565b5050565b600061113682611f8c565b9050919050565b60008073ffffffffffffffffffffffffffffffffffffffff168273ffffffffffffffffffffffffffffffffffffffff1614156111a5576040517f8f4eb60400000000000000000000000000000000000000000000000000000000815260040160405180910390fd5b67ffffffffffffffff600560008473ffffffffffffffffffffffffffffffffffffffff1673ffffffffffffffffffffffffffffffffffffffff16815260200190815260200160002054169050919050565b6111fe612124565b8060128190555050565b611210612124565b61121a60006121fc565b565b611224612124565b6001600d60026101000a81548160ff021916908315150217905550565b6112496121a2565b611251612124565b601354811115611296576040517f08c379a000000000000000000000000000000000000000000000000000000000815260040161128d90613684565b60405180910390fd5b6112a082826122c2565b806013546112ae9190613899565b6013819055506112bc6121f2565b5050565b600c80546112cd9061398d565b80601f01602080910402602001604051908101604052809291908181526020018280546112f99061398d565b80156113465780601f1061131b57610100808354040283529160200191611346565b820191906000526020600020905b81548152906001019060200180831161132957829003601f168201915b505050505081565b6000600860009054906101000a900473ffffffffffffffffffffffffffffffffffffffff16905090565b6060600380546113879061398d565b80601f01602080910402602001604051908101604052809291908181526020018280546113b39061398d565b80156114005780601f106113d557610100808354040283529160200191611400565b820191906000526020600020905b8154815290600101906020018083116113e357829003601f168201915b5050505050905090565b611412612124565b80600d60006101000a81548160ff02191690831515021790555050565b611437612124565b8060118190555050565b806007600061144e611f7b565b73ffffffffffffffffffffffffffffffffffffffff1673ffffffffffffffffffffffffffffffffffffffff16815260200190815260200160002060008473ffffffffffffffffffffffffffffffffffffffff1673ffffffffffffffffffffffffffffffffffffffff16815260200190815260200160002060006101000a81548160ff0219169083151502179055508173ffffffffffffffffffffffffffffffffffffffff166114fb611f7b565b73ffffffffffffffffffffffffffffffffffffffff167f17307eab39ab6107e8899845ad3d59bd9653f200f220920489ca2b5937696c318360405161154091906134ec565b60405180910390a35050565b82826016546115c3838380806020026020016040519081016040528093929190818152602001838360200280828437600081840152601f19601f8201169050808301925050505050505082336040516020016115a89190613424565b604051602081830303815290604052805190602001206122e0565b611602576040517f08c379a00000000000000000000000000000000000000000000000000000000081526004016115f990613644565b60405180910390fd5b61160a6121a2565b83600d60009054906101000a900460ff1661165a576040517f08c379a0000000000000000000000000000000000000000000000000000000008152600401611651906135a4565b60405180910390fd5b84601354600e5461166b9190613899565b81611674610cba565b61167e91906137e9565b11156116bf576040517f08c379a00000000000000000000000000000000000000000000000000000000081526004016116b690613624565b60405180910390fd5b3273ffffffffffffffffffffffffffffffffffffffff163373ffffffffffffffffffffffffffffffffffffffff161461172d576040517f08c379a0000000000000000000000000000000000000000000000000000000008152600401611724906135e4565b60405180910390fd5b60125486601460003373ffffffffffffffffffffffffffffffffffffffff1673ffffffffffffffffffffffffffffffffffffffff1681526020019081526020016000205461177b91906137e9565b11156117bc576040517f08c379a00000000000000000000000000000000000000000000000000000000081526004016117b3906135c4565b60405180910390fd5b856010546117ca919061383f565b34101561180c576040517f08c379a000000000000000000000000000000000000000000000000000000000815260040161180390613544565b60405180910390fd5b85601460003373ffffffffffffffffffffffffffffffffffffffff1673ffffffffffffffffffffffffffffffffffffffff168152602001908152602001600020600082825461185b91906137e9565b9250508190555061186c33876122c2565b50506118766121f2565b505050505050565b60146020528060005260406000206000915090505481565b600d60019054906101000a900460ff1681565b6118b4848484610ce9565b60008373ffffffffffffffffffffffffffffffffffffffff163b14611916576118df848484846122f7565b611915576040517fd1a57ed600000000000000000000000000000000000000000000000000000000815260040160405180910390fd5b5b50505050565b611924612124565b80600c908051906020019061193a929190612b7d565b5050565b611946612124565b8060168190555050565b600b805461195d9061398d565b80601f01602080910402602001604051908101604052809291908181526020018280546119899061398d565b80156119d65780601f106119ab576101008083540402835291602001916119d6565b820191906000526020600020905b8154815290600101906020018083116119b957829003601f168201915b505050505081565b60606119e982611f1c565b611a28576040517f08c379a0000000000000000000000000000000000000000000000000000000008152600401611a1f906136a4565b60405180910390fd5b60001515600d60029054906101000a900460ff1615151415611ad657600c8054611a519061398d565b80601f0160208091040260200160405190810160405280929190818152602001828054611a7d9061398d565b8015611aca5780601f10611a9f57610100808354040283529160200191611aca565b820191906000526020600020905b815481529060010190602001808311611aad57829003601f168201915b50505050509050611b32565b6000611ae0612457565b90506000815111611b005760405180602001604052806000815250611b2e565b80611b0a846124e9565b600b604051602001611b1e9392919061343f565b6040516020818303038152906040525b9150505b919050565b600d60029054906101000a900460ff1681565b611b52612124565b6000601381905550565b60125481565b60115481565b6000600760008473ffffffffffffffffffffffffffffffffffffffff1673ffffffffffffffffffffffffffffffffffffffff16815260200190815260200160002060008373ffffffffffffffffffffffffffffffffffffffff1673ffffffffffffffffffffffffffffffffffffffff16815260200190815260200160002060009054906101000a900460ff16905092915050565b611c04612124565b80600d60016101000a81548160ff02191690831515021790555050565b611c296121a2565b80600d60019054906101000a900460ff16611c79576040517f08c379a0000000000000000000000000000000000000000000000000000000008152600401611c70906135a4565b60405180910390fd5b81601354600e54611c8a9190613899565b81611c93610cba565b611c9d91906137e9565b1115611cde576040517f08c379a0000000000000000000000000000000000000000000000000000000008152600401611cd590613624565b60405180910390fd5b3273ffffffffffffffffffffffffffffffffffffffff163373ffffffffffffffffffffffffffffffffffffffff1614611d4c576040517f08c379a0000000000000000000000000000000000000000000000000000000008152600401611d4390613584565b60405180910390fd5b60115483601560003373ffffffffffffffffffffffffffffffffffffffff1673ffffffffffffffffffffffffffffffffffffffff16815260200190815260200160002054611d9a91906137e9565b1115611ddb576040517f08c379a0000000000000000000000000000000000000000000000000000000008152600401611dd290613604565b60405180910390fd5b82600f54611de9919061383f565b341015611e2b576040517f08c379a0000000000000000000000000000000000000000000000000000000008152600401611e2290613544565b60405180910390fd5b82601560003373ffffffffffffffffffffffffffffffffffffffff1673ffffffffffffffffffffffffffffffffffffffff1681526020019081526020016000206000828254611e7a91906137e9565b92505081905550611e8b33846122c2565b5050611e956121f2565b50565b611ea0612124565b600073ffffffffffffffffffffffffffffffffffffffff168173ffffffffffffffffffffffffffffffffffffffff161415611f10576040517f08c379a0000000000000000000000000000000000000000000000000000000008152600401611f0790613564565b60405180910390fd5b611f19816121fc565b50565b600081611f27611f83565b11158015611f36575060005482105b8015611f74575060007c0100000000000000000000000000000000000000000000000000000000600460008581526020019081526020016000205416145b9050919050565b600033905090565b60006001905090565b60008082905080611f9b611f83565b11612023576000548110156120225760006004600083815260200190815260200160002054905060007c010000000000000000000000000000000000000000000000000000000082161415612020575b6000811415612016576004600083600190039350838152602001908152602001600020549050611feb565b8092505050612055565b505b5b6040517fdf2d9b4200000000000000000000000000000000000000000000000000000000815260040160405180910390fd5b919050565b60008060006006600085815260200190815260200160002090508092508254915050915091565b600073ffffffffffffffffffffffffffffffffffffffff8316925073ffffffffffffffffffffffffffffffffffffffff821691508382148383141790509392505050565b50505050565b60008060e883901c905060e86120e286868461260d565b62ffffff16901b9150509392505050565b600073ffffffffffffffffffffffffffffffffffffffff83169250814260a01b178317905092915050565b50505050565b61212c612616565b73ffffffffffffffffffffffffffffffffffffffff1661214a61134e565b73ffffffffffffffffffffffffffffffffffffffff16146121a0576040517f08c379a000000000000000000000000000000000000000000000000000000000815260040161219790613664565b60405180910390fd5b565b600260095414156121e8576040517f08c379a00000000000000000000000000000000000000000000000000000000081526004016121df906136c4565b60405180910390fd5b6002600981905550565b6001600981905550565b6000600860009054906101000a900473ffffffffffffffffffffffffffffffffffffffff16905081600860006101000a81548173ffffffffffffffffffffffffffffffffffffffff021916908373ffffffffffffffffffffffffffffffffffffffff1602179055508173ffffffffffffffffffffffffffffffffffffffff168173ffffffffffffffffffffffffffffffffffffffff167f8be0079c531659141344cd1fd0a4f28419497f9722a3daafe3b4186f6b6457e060405160405180910390a35050565b6122dc82826040518060200160405280600081525061261e565b5050565b6000826122ed85846126bb565b1490509392505050565b60008373ffffffffffffffffffffffffffffffffffffffff1663150b7a0261231d611f7b565b8786866040518563ffffffff1660e01b815260040161233f94939291906134a0565b602060405180830381600087803b15801561235957600080fd5b505af192505050801561238a57506040513d601f19601f820116820180604052508101906123879190613032565b60015b612404573d80600081146123ba576040519150601f19603f3d011682016040523d82523d6000602084013e6123bf565b606091505b506000815114156123fc576040517fd1a57ed600000000000000000000000000000000000000000000000000000000815260040160405180910390fd5b805181602001fd5b63150b7a0260e01b7bffffffffffffffffffffffffffffffffffffffffffffffffffffffff1916817bffffffffffffffffffffffffffffffffffffffffffffffffffffffff191614915050949350505050565b6060600a80546124669061398d565b80601f01602080910402602001604051908101604052809291908181526020018280546124929061398d565b80156124df5780601f106124b4576101008083540402835291602001916124df565b820191906000526020600020905b8154815290600101906020018083116124c257829003601f168201915b5050505050905090565b6060600060016124f884612737565b01905060008167ffffffffffffffff81111561253d577f4e487b7100000000000000000000000000000000000000000000000000000000600052604160045260246000fd5b6040519080825280601f01601f19166020018201604052801561256f5781602001600182028036833780820191505090505b509050600082602001820190505b600115612602578080600190039150507f3031323334353637383961626364656600000000000000000000000000000000600a86061a8153600a85816125ec577f4e487b7100000000000000000000000000000000000000000000000000000000600052601260045260246000fd5b04945060008514156125fd57612602565b61257d565b819350505050919050565b60009392505050565b600033905090565b612628838361296e565b60008373ffffffffffffffffffffffffffffffffffffffff163b146126b657600080549050600083820390505b61266860008683806001019450866122f7565b61269e576040517fd1a57ed600000000000000000000000000000000000000000000000000000000815260040160405180910390fd5b8181106126555781600054146126b357600080fd5b50505b505050565b60008082905060005b845181101561272c576127178286838151811061270a577f4e487b7100000000000000000000000000000000000000000000000000000000600052603260045260246000fd5b6020026020010151612b2b565b91508080612724906139f0565b9150506126c4565b508091505092915050565b600080600090507a184f03e93ff9f4daa797ed6e38ed64bf6a1f01000000000000000083106127bb577a184f03e93ff9f4daa797ed6e38ed64bf6a1f01000000000000000083816127b1577f4e487b7100000000000000000000000000000000000000000000000000000000600052601260045260246000fd5b0492506040810190505b6d04ee2d6d415b85acef8100000000831061281e576d04ee2d6d415b85acef81000000008381612814577f4e487b7100000000000000000000000000000000000000000000000000000000600052601260045260246000fd5b0492506020810190505b662386f26fc10000831061287357662386f26fc100008381612869577f4e487b7100000000000000000000000000000000000000000000000000000000600052601260045260246000fd5b0492506010810190505b6305f5e10083106128c2576305f5e10083816128b8577f4e487b7100000000000000000000000000000000000000000000000000000000600052601260045260246000fd5b0492506008810190505b612710831061290d576127108381612903577f4e487b7100000000000000000000000000000000000000000000000000000000600052601260045260246000fd5b0492506004810190505b60648310612956576064838161294c577f4e487b7100000000000000000000000000000000000000000000000000000000600052601260045260246000fd5b0492506002810190505b600a8310612965576001810190505b80915050919050565b60008054905060008214156129af576040517fb562e8dd00000000000000000000000000000000000000000000000000000000815260040160405180910390fd5b6129bc60008483856120c5565b600160406001901b178202600560008573ffffffffffffffffffffffffffffffffffffffff1673ffffffffffffffffffffffffffffffffffffffff16815260200190815260200160002060008282540192505081905550612a3383612a2460008660006120cb565b612a2d85612b56565b176120f3565b6004600083815260200190815260200160002081905550600080838301905073ffffffffffffffffffffffffffffffffffffffff85169150828260007fddf252ad1be2c89b69c2b068fc378daa952ba7f163c4a11628f55a4df523b3ef600080a4600183015b818114612ad457808360007fddf252ad1be2c89b69c2b068fc378daa952ba7f163c4a11628f55a4df523b3ef600080a4600181019050612a99565b506000821415612b10576040517f2e07630000000000000000000000000000000000000000000000000000000000815260040160405180910390fd5b806000819055505050612b26600084838561211e565b505050565b6000818310612b4357612b3e8284612b66565b612b4e565b612b4d8383612b66565b5b905092915050565b60006001821460e11b9050919050565b600082600052816020526040600020905092915050565b828054612b899061398d565b90600052602060002090601f016020900481019282612bab5760008555612bf2565b82601f10612bc457805160ff1916838001178555612bf2565b82800160010185558215612bf2579182015b82811115612bf1578251825591602001919060010190612bd6565b5b509050612bff9190612c03565b5090565b5b80821115612c1c576000816000905550600101612c04565b5090565b6000612c33612c2e84613724565b6136ff565b905082815260208101848484011115612c4b57600080fd5b612c5684828561394b565b509392505050565b6000612c71612c6c84613755565b6136ff565b905082815260208101848484011115612c8957600080fd5b612c9484828561394b565b509392505050565b600081359050612cab81613db8565b92915050565b60008083601f840112612cc357600080fd5b8235905067ffffffffffffffff811115612cdc57600080fd5b602083019150836020820283011115612cf457600080fd5b9250929050565b600081359050612d0a81613dcf565b92915050565b600081359050612d1f81613de6565b92915050565b600081359050612d3481613dfd565b92915050565b600081519050612d4981613dfd565b92915050565b600082601f830112612d6057600080fd5b8135612d70848260208601612c20565b91505092915050565b600082601f830112612d8a57600080fd5b8135612d9a848260208601612c5e565b91505092915050565b600081359050612db281613e14565b92915050565b600060208284031215612dca57600080fd5b6000612dd884828501612c9c565b91505092915050565b60008060408385031215612df457600080fd5b6000612e0285828601612c9c565b9250506020612e1385828601612c9c565b9150509250929050565b600080600060608486031215612e3257600080fd5b6000612e4086828701612c9c565b9350506020612e5186828701612c9c565b9250506040612e6286828701612da3565b9150509250925092565b60008060008060808587031215612e8257600080fd5b6000612e9087828801612c9c565b9450506020612ea187828801612c9c565b9350506040612eb287828801612da3565b925050606085013567ffffffffffffffff811115612ecf57600080fd5b612edb87828801612d4f565b91505092959194509250565b60008060408385031215612efa57600080fd5b6000612f0885828601612c9c565b9250506020612f1985828601612cfb565b9150509250929050565b60008060408385031215612f3657600080fd5b6000612f4485828601612c9c565b9250506020612f5585828601612da3565b9150509250929050565b600080600060408486031215612f7457600080fd5b600084013567ffffffffffffffff811115612f8e57600080fd5b612f9a86828701612cb1565b93509350506020612fad86828701612da3565b9150509250925092565b600060208284031215612fc957600080fd5b6000612fd784828501612cfb565b91505092915050565b600060208284031215612ff257600080fd5b600061300084828501612d10565b91505092915050565b60006020828403121561301b57600080fd5b600061302984828501612d25565b91505092915050565b60006020828403121561304457600080fd5b600061305284828501612d3a565b91505092915050565b60006020828403121561306d57600080fd5b600082013567ffffffffffffffff81111561308757600080fd5b61309384828501612d79565b91505092915050565b6000602082840312156130ae57600080fd5b60006130bc84828501612da3565b91505092915050565b6130ce816138cd565b82525050565b6130e56130e0826138cd565b613a39565b82525050565b6130f4816138df565b82525050565b613103816138eb565b82525050565b60006131148261379b565b61311e81856137b1565b935061312e81856020860161395a565b61313781613aea565b840191505092915050565b600061314d826137a6565b61315781856137cd565b935061316781856020860161395a565b61317081613aea565b840191505092915050565b6000613186826137a6565b61319081856137de565b93506131a081856020860161395a565b80840191505092915050565b600081546131b98161398d565b6131c381866137de565b945060018216600081146131de57600181146131ef57613222565b60ff19831686528186019350613222565b6131f885613786565b60005b8381101561321a578154818901526001820191506020810190506131fb565b838801955050505b50505092915050565b60006132386017836137cd565b915061324382613b08565b602082019050919050565b600061325b6026836137cd565b915061326682613b31565b604082019050919050565b600061327e6015836137cd565b915061328982613b80565b602082019050919050565b60006132a16013836137cd565b91506132ac82613ba9565b602082019050919050565b60006132c46016836137cd565b91506132cf82613bd2565b602082019050919050565b60006132e76014836137cd565b91506132f282613bfb565b602082019050919050565b600061330a601a836137cd565b915061331582613c24565b602082019050919050565b600061332d6028836137cd565b915061333882613c4d565b604082019050919050565b6000613350601b836137cd565b915061335b82613c9c565b602082019050919050565b60006133736020836137cd565b915061337e82613cc5565b602082019050919050565b6000613396602b836137cd565b91506133a182613cee565b604082019050919050565b60006133b9602f836137cd565b91506133c482613d3d565b604082019050919050565b60006133dc6000836137c2565b91506133e782613d8c565b600082019050919050565b60006133ff601f836137cd565b915061340a82613d8f565b602082019050919050565b61341e81613941565b82525050565b600061343082846130d4565b60148201915081905092915050565b600061344b828661317b565b9150613457828561317b565b915061346382846131ac565b9150819050949350505050565b600061347b826133cf565b9150819050919050565b600060208201905061349a60008301846130c5565b92915050565b60006080820190506134b560008301876130c5565b6134c260208301866130c5565b6134cf6040830185613415565b81810360608301526134e18184613109565b905095945050505050565b600060208201905061350160008301846130eb565b92915050565b600060208201905061351c60008301846130fa565b92915050565b6000602082019050818103600083015261353c8184613142565b905092915050565b6000602082019050818103600083015261355d8161322b565b9050919050565b6000602082019050818103600083015261357d8161324e565b9050919050565b6000602082019050818103600083015261359d81613271565b9050919050565b600060208201905081810360008301526135bd81613294565b9050919050565b600060208201905081810360008301526135dd816132b7565b9050919050565b600060208201905081810360008301526135fd816132da565b9050919050565b6000602082019050818103600083015261361d816132fd565b9050919050565b6000602082019050818103600083015261363d81613320565b9050919050565b6000602082019050818103600083015261365d81613343565b9050919050565b6000602082019050818103600083015261367d81613366565b9050919050565b6000602082019050818103600083015261369d81613389565b9050919050565b600060208201905081810360008301526136bd816133ac565b9050919050565b600060208201905081810360008301526136dd816133f2565b9050919050565b60006020820190506136f96000830184613415565b92915050565b600061370961371a565b905061371582826139bf565b919050565b6000604051905090565b600067ffffffffffffffff82111561373f5761373e613abb565b5b61374882613aea565b9050602081019050919050565b600067ffffffffffffffff8211156137705761376f613abb565b5b61377982613aea565b9050602081019050919050565b60008190508160005260206000209050919050565b600081519050919050565b600081519050919050565b600082825260208201905092915050565b600081905092915050565b600082825260208201905092915050565b600081905092915050565b60006137f482613941565b91506137ff83613941565b9250827fffffffffffffffffffffffffffffffffffffffffffffffffffffffffffffffff0382111561383457613833613a5d565b5b828201905092915050565b600061384a82613941565b915061385583613941565b9250817fffffffffffffffffffffffffffffffffffffffffffffffffffffffffffffffff048311821515161561388e5761388d613a5d565b5b828202905092915050565b60006138a482613941565b91506138af83613941565b9250828210156138c2576138c1613a5d565b5b828203905092915050565b60006138d882613921565b9050919050565b60008115159050919050565b6000819050919050565b60007fffffffff0000000000000000000000000000000000000000000000000000000082169050919050565b600073ffffffffffffffffffffffffffffffffffffffff82169050919050565b6000819050919050565b82818337600083830152505050565b60005b8381101561397857808201518184015260208101905061395d565b83811115613987576000848401525b50505050565b600060028204905060018216806139a557607f821691505b602082108114156139b9576139b8613a8c565b5b50919050565b6139c882613aea565b810181811067ffffffffffffffff821117156139e7576139e6613abb565b5b80604052505050565b60006139fb82613941565b91507fffffffffffffffffffffffffffffffffffffffffffffffffffffffffffffffff821415613a2e57613a2d613a5d565b5b600182019050919050565b6000613a4482613a4b565b9050919050565b6000613a5682613afb565b9050919050565b7f4e487b7100000000000000000000000000000000000000000000000000000000600052601160045260246000fd5b7f4e487b7100000000000000000000000000000000000000000000000000000000600052602260045260246000fd5b7f4e487b7100000000000000000000000000000000000000000000000000000000600052604160045260246000fd5b6000601f19601f8301169050919050565b60008160601b9050919050565b7f4e6f7420656e6f7567682045544820746f206d696e7421000000000000000000600082015250565b7f4f776e61626c653a206e6577206f776e657220697320746865207a65726f206160008201527f6464726573730000000000000000000000000000000000000000000000000000602082015250565b7f436f6e7472616374732063616e2774206d696e74210000000000000000000000600082015250565b7f4d696e74206973206e6f74206163746976652100000000000000000000000000600082015250565b7f596f7520616c7265616479206d696e74656420574c2100000000000000000000600082015250565b7f636f6e7472616374732063616e2774206d696e74000000000000000000000000600082015250565b7f596f7520616c7265616479206d696e746564207075626c696321000000000000600082015250565b7f526571756573746564206d696e7420636f756e7420657863656564732074686560008201527f20737570706c7921000000000000000000000000000000000000000000000000602082015250565b7f41646472657373206973206e6f742077686974656c6973746564210000000000600082015250565b7f4f776e61626c653a2063616c6c6572206973206e6f7420746865206f776e6572600082015250565b7f526571756573746564206d696e7420636f756e7420657863656564732072657360008201527f65727665206c696d697421000000000000000000000000000000000000000000602082015250565b7f4552433732314d657461646174613a2055524920717565727920666f72206e6f60008201527f6e6578697374656e7420746f6b656e0000000000000000000000000000000000602082015250565b50565b7f5265656e7472616e637947756172643a207265656e7472616e742063616c6c00600082015250565b613dc1816138cd565b8114613dcc57600080fd5b50565b613dd8816138df565b8114613de357600080fd5b50565b613def816138eb565b8114613dfa57600080fd5b50565b613e06816138f5565b8114613e1157600080fd5b50565b613e1d81613941565b8114613e2857600080fd5b5056fea26469706673582212207be70ca26b060af828c30ae503665944b51e4d7f0b6d64a01fd539cb752a110a64736f6c63430008040033",
  "linkReferences": {},
  "deployedLinkReferences": {}
}