{
  "_format": "hh-sol-artifact-1",
  "contractName": "Test",
  "sourceName": "contracts/Test.sol",
  "abi": [
    {
      "inputs": [],
      "stateMutability": "nonpayable",
      "type": "constructor"
    },
    {
      "inputs": [],
      "name": "ApprovalCallerNotOwnerNorApproved",
      "type": "error"
    },
    {
      "inputs": [],
      "name": "ApprovalQueryForNonexistentToken",
      "type": "error"
    },
    {
      "inputs": [],
      "name": "BalanceQueryForZeroAddress",
      "type": "error"
    },
    {
      "inputs": [],
      "name": "MintERC2309QuantityExceedsLimit",
      "type": "error"
    },
    {
      "inputs": [],
      "name": "MintToZeroAddress",
      "type": "error"
    },
    {
      "inputs": [],
      "name": "MintZeroQuantity",
      "type": "error"
    },
    {
      "inputs": [],
      "name": "OwnerQueryForNonexistentToken",
      "type": "error"
    },
    {
      "inputs": [],
      "name": "OwnershipNotInitializedForExtraData",
      "type": "error"
    },
    {
      "inputs": [],
      "name": "TransferCallerNotOwnerNorApproved",
      "type": "error"
    },
    {
      "inputs": [],
      "name": "TransferFromIncorrectOwner",
      "type": "error"
    },
    {
      "inputs": [],
      "name": "TransferToNonERC721ReceiverImplementer",
      "type": "error"
    },
    {
      "inputs": [],
      "name": "TransferToZeroAddress",
      "type": "error"
    },
    {
      "inputs": [],
      "name": "URIQueryForNonexistentToken",
      "type": "error"
    },
    {
      "anonymous": false,
      "inputs": [
        {
          "indexed": true,
          "internalType": "address",
          "name": "owner",
          "type": "address"
        },
        {
          "indexed": true,
          "internalType": "address",
          "name": "approved",
          "type": "address"
        },
        {
          "indexed": true,
          "internalType": "uint256",
          "name": "tokenId",
          "type": "uint256"
        }
      ],
      "name": "Approval",
      "type": "event"
    },
    {
      "anonymous": false,
      "inputs": [
        {
          "indexed": true,
          "internalType": "address",
          "name": "owner",
          "type": "address"
        },
        {
          "indexed": true,
          "internalType": "address",
          "name": "operator",
          "type": "address"
        },
        {
          "indexed": false,
          "internalType": "bool",
          "name": "approved",
          "type": "bool"
        }
      ],
      "name": "ApprovalForAll",
      "type": "event"
    },
    {
      "anonymous": false,
      "inputs": [
        {
          "indexed": true,
          "internalType": "uint256",
          "name": "fromTokenId",
          "type": "uint256"
        },
        {
          "indexed": false,
          "internalType": "uint256",
          "name": "toTokenId",
          "type": "uint256"
        },
        {
          "indexed": true,
          "internalType": "address",
          "name": "from",
          "type": "address"
        },
        {
          "indexed": true,
          "internalType": "address",
          "name": "to",
          "type": "address"
        }
      ],
      "name": "ConsecutiveTransfer",
      "type": "event"
    },
    {
      "anonymous": false,
      "inputs": [
        {
          "indexed": true,
          "internalType": "address",
          "name": "previousOwner",
          "type": "address"
        },
        {
          "indexed": true,
          "internalType": "address",
          "name": "newOwner",
          "type": "address"
        }
      ],
      "name": "OwnershipTransferred",
      "type": "event"
    },
    {
      "anonymous": false,
      "inputs": [
        {
          "indexed": true,
          "internalType": "address",
          "name": "from",
          "type": "address"
        },
        {
          "indexed": true,
          "internalType": "address",
          "name": "to",
          "type": "address"
        },
        {
          "indexed": true,
          "internalType": "uint256",
          "name": "tokenId",
          "type": "uint256"
        }
      ],
      "name": "Transfer",
      "type": "event"
    },
    {
      "inputs": [
        {
          "internalType": "address",
          "name": "to",
          "type": "address"
        },
        {
          "internalType": "uint256",
          "name": "tokenId",
          "type": "uint256"
        }
      ],
      "name": "approve",
      "outputs": [],
      "stateMutability": "payable",
      "type": "function"
    },
    {
      "inputs": [
        {
          "internalType": "address",
          "name": "owner",
          "type": "address"
        }
      ],
      "name": "balanceOf",
      "outputs": [
        {
          "internalType": "uint256",
          "name": "",
          "type": "uint256"
        }
      ],
      "stateMutability": "view",
      "type": "function"
    },
    {
      "inputs": [],
      "name": "baseExtension",
      "outputs": [
        {
          "internalType": "string",
          "name": "",
          "type": "string"
        }
      ],
      "stateMutability": "view",
      "type": "function"
    },
    {
      "inputs": [],
      "name": "cost",
      "outputs": [
        {
          "internalType": "uint256",
          "name": "",
          "type": "uint256"
        }
      ],
      "stateMutability": "view",
      "type": "function"
    },
    {
      "inputs": [],
      "name": "costWl",
      "outputs": [
        {
          "internalType": "uint256",
          "name": "",
          "type": "uint256"
        }
      ],
      "stateMutability": "view",
      "type": "function"
    },
    {
      "inputs": [
        {
          "internalType": "uint256",
          "name": "tokenId",
          "type": "uint256"
        }
      ],
      "name": "getApproved",
      "outputs": [
        {
          "internalType": "address",
          "name": "",
          "type": "address"
        }
      ],
      "stateMutability": "view",
      "type": "function"
    },
    {
      "inputs": [],
      "name": "hiddenURI",
      "outputs": [
        {
          "internalType": "string",
          "name": "",
          "type": "string"
        }
      ],
      "stateMutability": "view",
      "type": "function"
    },
    {
      "inputs": [
        {
          "internalType": "address",
          "name": "owner",
          "type": "address"
        },
        {
          "internalType": "address",
          "name": "operator",
          "type": "address"
        }
      ],
      "name": "isApprovedForAll",
      "outputs": [
        {
          "internalType": "bool",
          "name": "",
          "type": "bool"
        }
      ],
      "stateMutability": "view",
      "type": "function"
    },
    {
      "inputs": [],
      "name": "merkleRoot",
      "outputs": [
        {
          "internalType": "bytes32",
          "name": "",
          "type": "bytes32"
        }
      ],
      "stateMutability": "view",
      "type": "function"
    },
    {
      "inputs": [
        {
          "internalType": "uint256",
          "name": "_count",
          "type": "uint256"
        }
      ],
      "name": "mintPublic",
      "outputs": [],
      "stateMutability": "payable",
      "type": "function"
    },
    {
      "inputs": [
        {
          "internalType": "bytes32[]",
          "name": "_merkleProof",
          "type": "bytes32[]"
        },
        {
          "internalType": "uint256",
          "name": "_count",
          "type": "uint256"
        }
      ],
      "name": "mintWhitelist",
      "outputs": [],
      "stateMutability": "payable",
      "type": "function"
    },
    {
      "inputs": [],
      "name": "mints",
      "outputs": [
        {
          "internalType": "uint256",
          "name": "",
          "type": "uint256"
        }
      ],
      "stateMutability": "view",
      "type": "function"
    },
    {
      "inputs": [],
      "name": "mintsWl",
      "outputs": [
        {
          "internalType": "uint256",
          "name": "",
          "type": "uint256"
        }
      ],
      "stateMutability": "view",
      "type": "function"
    },
    {
      "inputs": [],
      "name": "name",
      "outputs": [
        {
          "internalType": "string",
          "name": "",
          "type": "string"
        }
      ],
      "stateMutability": "view",
      "type": "function"
    },
    {
      "inputs": [],
      "name": "owner",
      "outputs": [
        {
          "internalType": "address",
          "name": "",
          "type": "address"
        }
      ],
      "stateMutability": "view",
      "type": "function"
    },
    {
      "inputs": [
        {
          "internalType": "uint256",
          "name": "tokenId",
          "type": "uint256"
        }
      ],
      "name": "ownerOf",
      "outputs": [
        {
          "internalType": "address",
          "name": "",
          "type": "address"
        }
      ],
      "stateMutability": "view",
      "type": "function"
    },
    {
      "inputs": [],
      "name": "publicMintActive",
      "outputs": [
        {
          "internalType": "bool",
          "name": "",
          "type": "bool"
        }
      ],
      "stateMutability": "view",
      "type": "function"
    },
    {
      "inputs": [],
      "name": "releaseReserve",
      "outputs": [],
      "stateMutability": "nonpayable",
      "type": "function"
    },
    {
      "inputs": [],
      "name": "renounceOwnership",
      "outputs": [],
      "stateMutability": "nonpayable",
      "type": "function"
    },
    {
      "inputs": [
        {
          "internalType": "address",
          "name": "owner",
          "type": "address"
        },
        {
          "internalType": "uint256",
          "name": "_count",
          "type": "uint256"
        }
      ],
      "name": "reserveTokens",
      "outputs": [],
      "stateMutability": "nonpayable",
      "type": "function"
    },
    {
      "inputs": [],
      "name": "revealLive",
      "outputs": [
        {
          "internalType": "bool",
          "name": "",
          "type": "bool"
        }
      ],
      "stateMutability": "view",
      "type": "function"
    },
    {
      "inputs": [
        {
          "internalType": "address",
          "name": "from",
          "type": "address"
        },
        {
          "internalType": "address",
          "name": "to",
          "type": "address"
        },
        {
          "internalType": "uint256",
          "name": "tokenId",
          "type": "uint256"
        }
      ],
      "name": "safeTransferFrom",
      "outputs": [],
      "stateMutability": "payable",
      "type": "function"
    },
    {
      "inputs": [
        {
          "internalType": "address",
          "name": "from",
          "type": "address"
        },
        {
          "internalType": "address",
          "name": "to",
          "type": "address"
        },
        {
          "internalType": "uint256",
          "name": "tokenId",
          "type": "uint256"
        },
        {
          "internalType": "bytes",
          "name": "_data",
          "type": "bytes"
        }
      ],
      "name": "safeTransferFrom",
      "outputs": [],
      "stateMutability": "payable",
      "type": "function"
    },
    {
      "inputs": [
        {
          "internalType": "bool",
          "name": "_wlMintActive",
          "type": "bool"
        }
      ],
      "name": "seWlMintActive",
      "outputs": [],
      "stateMutability": "nonpayable",
      "type": "function"
    },
    {
      "inputs": [
        {
          "internalType": "address",
          "name": "operator",
          "type": "address"
        },
        {
          "internalType": "bool",
          "name": "approved",
          "type": "bool"
        }
      ],
      "name": "setApprovalForAll",
      "outputs": [],
      "stateMutability": "nonpayable",
      "type": "function"
    },
    {
      "inputs": [
        {
          "internalType": "string",
          "name": "uri",
          "type": "string"
        }
      ],
      "name": "setBaseURI",
      "outputs": [],
      "stateMutability": "nonpayable",
      "type": "function"
    },
    {
      "inputs": [
        {
          "internalType": "uint256",
          "name": "_cost",
          "type": "uint256"
        }
      ],
      "name": "setCost",
      "outputs": [],
      "stateMutability": "nonpayable",
      "type": "function"
    },
    {
      "inputs": [
        {
          "internalType": "uint256",
          "name": "_costWl",
          "type": "uint256"
        }
      ],
      "name": "setCostWl",
      "outputs": [],
      "stateMutability": "nonpayable",
      "type": "function"
    },
    {
      "inputs": [
        {
          "internalType": "string",
          "name": "_hiddenURI",
          "type": "string"
        }
      ],
      "name": "setHiddenURI",
      "outputs": [],
      "stateMutability": "nonpayable",
      "type": "function"
    },
    {
      "inputs": [
        {
          "internalType": "bool",
          "name": "_publicMintActive",
          "type": "bool"
        }
      ],
      "name": "setMintActive",
      "outputs": [],
      "stateMutability": "nonpayable",
      "type": "function"
    },
    {
      "inputs": [
        {
          "internalType": "uint256",
          "name": "_mints",
          "type": "uint256"
        }
      ],
      "name": "setMintLimit",
      "outputs": [],
      "stateMutability": "nonpayable",
      "type": "function"
    },
    {
      "inputs": [],
      "name": "setReveal",
      "outputs": [],
      "stateMutability": "nonpayable",
      "type": "function"
    },
    {
      "inputs": [
        {
          "internalType": "bytes32",
          "name": "_merkleRoot",
          "type": "bytes32"
        }
      ],
      "name": "setWhitelistMerkleRoot",
      "outputs": [],
      "stateMutability": "nonpayable",
      "type": "function"
    },
    {
      "inputs": [
        {
          "internalType": "uint256",
          "name": "_mintsWl",
          "type": "uint256"
        }
      ],
      "name": "setWlMintLimit",
      "outputs": [],
      "stateMutability": "nonpayable",
      "type": "function"
    },
    {
      "inputs": [],
      "name": "supply",
      "outputs": [
        {
          "internalType": "uint256",
          "name": "",
          "type": "uint256"
        }
      ],
      "stateMutability": "view",
      "type": "function"
    },
    {
      "inputs": [
        {
          "internalType": "bytes4",
          "name": "interfaceId",
          "type": "bytes4"
        }
      ],
      "name": "supportsInterface",
      "outputs": [
        {
          "internalType": "bool",
          "name": "",
          "type": "bool"
        }
      ],
      "stateMutability": "view",
      "type": "function"
    },
    {
      "inputs": [],
      "name": "symbol",
      "outputs": [
        {
          "internalType": "string",
          "name": "",
          "type": "string"
        }
      ],
      "stateMutability": "view",
      "type": "function"
    },
    {
      "inputs": [
        {
          "internalType": "uint256",
          "name": "_tokenId",
          "type": "uint256"
        }
      ],
      "name": "tokenURI",
      "outputs": [
        {
          "internalType": "string",
          "name": "",
          "type": "string"
        }
      ],
      "stateMutability": "view",
      "type": "function"
    },
    {
      "inputs": [],
      "name": "totalSupply",
      "outputs": [
        {
          "internalType": "uint256",
          "name": "",
          "type": "uint256"
        }
      ],
      "stateMutability": "view",
      "type": "function"
    },
    {
      "inputs": [
        {
          "internalType": "address",
          "name": "from",
          "type": "address"
        },
        {
          "internalType": "address",
          "name": "to",
          "type": "address"
        },
        {
          "internalType": "uint256",
          "name": "tokenId",
          "type": "uint256"
        }
      ],
      "name": "transferFrom",
      "outputs": [],
      "stateMutability": "payable",
      "type": "function"
    },
    {
      "inputs": [
        {
          "internalType": "address",
          "name": "newOwner",
          "type": "address"
        }
      ],
      "name": "transferOwnership",
      "outputs": [],
      "stateMutability": "nonpayable",
      "type": "function"
    },
    {
      "inputs": [],
      "name": "withdraw",
      "outputs": [],
      "stateMutability": "payable",
      "type": "function"
    },
    {
      "inputs": [],
      "name": "wlMintActive",
      "outputs": [
        {
          "internalType": "bool",
          "name": "",
          "type": "bool"
        }
      ],
      "stateMutability": "view",
      "type": "function"
    }
  ],
  "bytecode": "0x60806040526040518060400160405280600581526020017f2e6a736f6e000000000000000000000000000000000000000000000000000000815250600b90805190602001906200005192919062000297565b506000600d60006101000a81548160ff0219169083151502179055506000600d60016101000a81548160ff0219169083151502179055506000600d60026101000a81548160ff021916908315150217905550610309600e55662386f26fc10000600f55662386f26fc1000060105560026011556002601255601e601355348015620000db57600080fd5b506040518060400160405280600481526020017f54657374000000000000000000000000000000000000000000000000000000008152506040518060400160405280600481526020017f546573740000000000000000000000000000000000000000000000000000000081525081600290805190602001906200016092919062000297565b5080600390805190602001906200017992919062000297565b506200018a620001c060201b60201c565b6000819055505050620001b2620001a6620001c960201b60201c565b620001d160201b60201c565b6001600981905550620003ac565b60006001905090565b600033905090565b6000600860009054906101000a900473ffffffffffffffffffffffffffffffffffffffff16905081600860006101000a81548173ffffffffffffffffffffffffffffffffffffffff021916908373ffffffffffffffffffffffffffffffffffffffff1602179055508173ffffffffffffffffffffffffffffffffffffffff168173ffffffffffffffffffffffffffffffffffffffff167f8be0079c531659141344cd1fd0a4f28419497f9722a3daafe3b4186f6b6457e060405160405180910390a35050565b828054620002a59062000347565b90600052602060002090601f016020900481019282620002c9576000855562000315565b82601f10620002e457805160ff191683800117855562000315565b8280016001018555821562000315579182015b8281111562000314578251825591602001919060010190620002f7565b5b50905062000324919062000328565b5090565b5b808211156200034357600081600090555060010162000329565b5090565b600060028204905060018216806200036057607f821691505b602082108114156200037757620003766200037d565b5b50919050565b7f4e487b7100000000000000000000000000000000000000000000000000000000600052602260045260246000fd5b613da180620003bc6000396000f3fe60806040526004361061025c5760003560e01c806378cf19e911610144578063bd32fb66116100b6578063d838a8011161007a578063d838a80114610836578063dfc7379d14610861578063e985e9c51461088c578063ee1cc944146108c9578063efd0cbf9146108f2578063f2fde38b1461090e5761025c565b8063bd32fb6614610763578063c66828621461078c578063c87b56dd146107b7578063cee7896c146107f4578063d3933ada1461081f5761025c565b80639e6a1d7d116101085780639e6a1d7d14610685578063a22cb465146106ae578063a6d612f9146106d7578063b67c25a3146106f3578063b88d4fde1461071e578063bbaac02f1461073a5761025c565b806378cf19e9146105b25780638cc54e7f146105db5780638da5cb5b1461060657806395d89b411461063157806395ea205f1461065c5761025c565b80633ccfd60b116101dd57806355f804b3116101a157806355f804b3146104b85780636352211e146104e157806370a082311461051e57806370ae98931461055b578063715018a614610584578063766453151461059b5761025c565b80633ccfd60b146104135780633ee0638c1461041d57806342842e0e1461044857806344a0d68a1461046457806351222f331461048d5761025c565b806313faede61161022457806313faede61461034d57806318160ddd1461037857806323b872dd146103a35780632c7407ec146103bf5780632eb4a7ab146103e85761025c565b806301ffc9a714610261578063047fc9aa1461029e57806306fdde03146102c9578063081812fc146102f4578063095ea7b314610331575b600080fd5b34801561026d57600080fd5b5061028860048036038101906102839190612f49565b610937565b604051610295919061342c565b60405180910390f35b3480156102aa57600080fd5b506102b36109c9565b6040516102c09190613624565b60405180910390f35b3480156102d557600080fd5b506102de6109cf565b6040516102eb9190613462565b60405180910390f35b34801561030057600080fd5b5061031b60048036038101906103169190612fdc565b610a61565b60405161032891906133c5565b60405180910390f35b61034b60048036038101906103469190612e63565b610ae0565b005b34801561035957600080fd5b50610362610c24565b60405161036f9190613624565b60405180910390f35b34801561038457600080fd5b5061038d610c2a565b60405161039a9190613624565b60405180910390f35b6103bd60048036038101906103b89190612d5d565b610c41565b005b3480156103cb57600080fd5b506103e660048036038101906103e19190612fdc565b610f66565b005b3480156103f457600080fd5b506103fd610f78565b60405161040a9190613447565b60405180910390f35b61041b610f7e565b005b34801561042957600080fd5b50610432611016565b60405161043f9190613624565b60405180910390f35b610462600480360381019061045d9190612d5d565b61101c565b005b34801561047057600080fd5b5061048b60048036038101906104869190612fdc565b61103c565b005b34801561049957600080fd5b506104a261104e565b6040516104af919061342c565b60405180910390f35b3480156104c457600080fd5b506104df60048036038101906104da9190612f9b565b611061565b005b3480156104ed57600080fd5b5061050860048036038101906105039190612fdc565b611083565b60405161051591906133c5565b60405180910390f35b34801561052a57600080fd5b5061054560048036038101906105409190612cf8565b611095565b6040516105529190613624565b60405180910390f35b34801561056757600080fd5b50610582600480360381019061057d9190612fdc565b61114e565b005b34801561059057600080fd5b50610599611160565b005b3480156105a757600080fd5b506105b0611174565b005b3480156105be57600080fd5b506105d960048036038101906105d49190612e63565b611199565b005b3480156105e757600080fd5b506105f0611218565b6040516105fd9190613462565b60405180910390f35b34801561061257600080fd5b5061061b6112a6565b60405161062891906133c5565b60405180910390f35b34801561063d57600080fd5b506106466112d0565b6040516106539190613462565b60405180910390f35b34801561066857600080fd5b50610683600480360381019061067e9190612ef7565b611362565b005b34801561069157600080fd5b506106ac60048036038101906106a79190612fdc565b611387565b005b3480156106ba57600080fd5b506106d560048036038101906106d09190612e27565b611399565b005b6106f160048036038101906106ec9190612e9f565b6114a4565b005b3480156106ff57600080fd5b506107086117d6565b604051610715919061342c565b60405180910390f35b61073860048036038101906107339190612dac565b6117e9565b005b34801561074657600080fd5b50610761600480360381019061075c9190612f9b565b61185c565b005b34801561076f57600080fd5b5061078a60048036038101906107859190612f20565b61187e565b005b34801561079857600080fd5b506107a1611890565b6040516107ae9190613462565b60405180910390f35b3480156107c357600080fd5b506107de60048036038101906107d99190612fdc565b61191e565b6040516107eb9190613462565b60405180910390f35b34801561080057600080fd5b50610809611a77565b604051610816919061342c565b60405180910390f35b34801561082b57600080fd5b50610834611a8a565b005b34801561084257600080fd5b5061084b611a9c565b6040516108589190613624565b60405180910390f35b34801561086d57600080fd5b50610876611aa2565b6040516108839190613624565b60405180910390f35b34801561089857600080fd5b506108b360048036038101906108ae9190612d21565b611aa8565b6040516108c0919061342c565b60405180910390f35b3480156108d557600080fd5b506108f060048036038101906108eb9190612ef7565b611b3c565b005b61090c60048036038101906109079190612fdc565b611b61565b005b34801561091a57600080fd5b5061093560048036038101906109309190612cf8565b611dd8565b005b60006301ffc9a760e01b827bffffffffffffffffffffffffffffffffffffffffffffffffffffffff1916148061099257506380ac58cd60e01b827bffffffffffffffffffffffffffffffffffffffffffffffffffffffff1916145b806109c25750635b5e139f60e01b827bffffffffffffffffffffffffffffffffffffffffffffffffffffffff1916145b9050919050565b600e5481565b6060600280546109de906138cd565b80601f0160208091040260200160405190810160405280929190818152602001828054610a0a906138cd565b8015610a575780601f10610a2c57610100808354040283529160200191610a57565b820191906000526020600020905b815481529060010190602001808311610a3a57829003601f168201915b5050505050905090565b6000610a6c82611e5c565b610aa2576040517fcf4700e400000000000000000000000000000000000000000000000000000000815260040160405180910390fd5b6006600083815260200190815260200160002060000160009054906101000a900473ffffffffffffffffffffffffffffffffffffffff169050919050565b6000610aeb82611083565b90508073ffffffffffffffffffffffffffffffffffffffff16610b0c611ebb565b73ffffffffffffffffffffffffffffffffffffffff1614610b6f57610b3881610b33611ebb565b611aa8565b610b6e576040517fcfb3b94200000000000000000000000000000000000000000000000000000000815260040160405180910390fd5b5b826006600084815260200190815260200160002060000160006101000a81548173ffffffffffffffffffffffffffffffffffffffff021916908373ffffffffffffffffffffffffffffffffffffffff160217905550818373ffffffffffffffffffffffffffffffffffffffff168273ffffffffffffffffffffffffffffffffffffffff167f8c5be1e5ebec7d5bd14f71427d1e84f3dd0314c0f7b2291e5b200ac8c7c3b92560405160405180910390a4505050565b600f5481565b6000610c34611ec3565b6001546000540303905090565b6000610c4c82611ecc565b90508373ffffffffffffffffffffffffffffffffffffffff168173ffffffffffffffffffffffffffffffffffffffff1614610cb3576040517fa114810000000000000000000000000000000000000000000000000000000000815260040160405180910390fd5b600080610cbf84611f9a565b91509150610cd58187610cd0611ebb565b611fc1565b610d2157610cea86610ce5611ebb565b611aa8565b610d20576040517f59c896be00000000000000000000000000000000000000000000000000000000815260040160405180910390fd5b5b600073ffffffffffffffffffffffffffffffffffffffff168573ffffffffffffffffffffffffffffffffffffffff161415610d88576040517fea553b3400000000000000000000000000000000000000000000000000000000815260040160405180910390fd5b610d958686866001612005565b8015610da057600082555b600560008773ffffffffffffffffffffffffffffffffffffffff1673ffffffffffffffffffffffffffffffffffffffff168152602001908152602001600020600081546001900391905081905550600560008673ffffffffffffffffffffffffffffffffffffffff1673ffffffffffffffffffffffffffffffffffffffff1681526020019081526020016000206000815460010191905081905550610e6e85610e4a88888761200b565b7c020000000000000000000000000000000000000000000000000000000017612033565b600460008681526020019081526020016000208190555060007c020000000000000000000000000000000000000000000000000000000084161415610ef6576000600185019050600060046000838152602001908152602001600020541415610ef4576000548114610ef3578360046000838152602001908152602001600020819055505b5b505b838573ffffffffffffffffffffffffffffffffffffffff168773ffffffffffffffffffffffffffffffffffffffff167fddf252ad1be2c89b69c2b068fc378daa952ba7f163c4a11628f55a4df523b3ef60405160405180910390a4610f5e868686600161205e565b505050505050565b610f6e612064565b8060108190555050565b60165481565b610f86612064565b610f8e6120e2565b6000610f986112a6565b73ffffffffffffffffffffffffffffffffffffffff1647604051610fbb906133b0565b60006040518083038185875af1925050503d8060008114610ff8576040519150601f19603f3d011682016040523d82523d6000602084013e610ffd565b606091505b505090508061100b57600080fd5b50611014612132565b565b60105481565b611037838383604051806020016040528060008152506117e9565b505050565b611044612064565b80600f8190555050565b600d60009054906101000a900460ff1681565b611069612064565b80600a908051906020019061107f929190612abd565b5050565b600061108e82611ecc565b9050919050565b60008073ffffffffffffffffffffffffffffffffffffffff168273ffffffffffffffffffffffffffffffffffffffff1614156110fd576040517f8f4eb60400000000000000000000000000000000000000000000000000000000815260040160405180910390fd5b67ffffffffffffffff600560008473ffffffffffffffffffffffffffffffffffffffff1673ffffffffffffffffffffffffffffffffffffffff16815260200190815260200160002054169050919050565b611156612064565b8060128190555050565b611168612064565b611172600061213c565b565b61117c612064565b6001600d60026101000a81548160ff021916908315150217905550565b6111a16120e2565b6111a9612064565b6013548111156111ee576040517f08c379a00000000000000000000000000000000000000000000000000000000081526004016111e5906135c4565b60405180910390fd5b6111f88282612202565b8060135461120691906137d9565b601381905550611214612132565b5050565b600c8054611225906138cd565b80601f0160208091040260200160405190810160405280929190818152602001828054611251906138cd565b801561129e5780601f106112735761010080835404028352916020019161129e565b820191906000526020600020905b81548152906001019060200180831161128157829003601f168201915b505050505081565b6000600860009054906101000a900473ffffffffffffffffffffffffffffffffffffffff16905090565b6060600380546112df906138cd565b80601f016020809104026020016040519081016040528092919081815260200182805461130b906138cd565b80156113585780601f1061132d57610100808354040283529160200191611358565b820191906000526020600020905b81548152906001019060200180831161133b57829003601f168201915b5050505050905090565b61136a612064565b80600d60006101000a81548160ff02191690831515021790555050565b61138f612064565b8060118190555050565b80600760006113a6611ebb565b73ffffffffffffffffffffffffffffffffffffffff1673ffffffffffffffffffffffffffffffffffffffff16815260200190815260200160002060008473ffffffffffffffffffffffffffffffffffffffff1673ffffffffffffffffffffffffffffffffffffffff16815260200190815260200160002060006101000a81548160ff0219169083151502179055508173ffffffffffffffffffffffffffffffffffffffff16611453611ebb565b73ffffffffffffffffffffffffffffffffffffffff167f17307eab39ab6107e8899845ad3d59bd9653f200f220920489ca2b5937696c3183604051611498919061342c565b60405180910390a35050565b828260165461151b838380806020026020016040519081016040528093929190818152602001838360200280828437600081840152601f19601f8201169050808301925050505050505082336040516020016115009190613364565b60405160208183030381529060405280519060200120612220565b61155a576040517f08c379a000000000000000000000000000000000000000000000000000000000815260040161155190613584565b60405180910390fd5b6115626120e2565b83600d60009054906101000a900460ff166115b2576040517f08c379a00000000000000000000000000000000000000000000000000000000081526004016115a9906134e4565b60405180910390fd5b84601354600e546115c391906137d9565b816115cc610c2a565b6115d69190613729565b1115611617576040517f08c379a000000000000000000000000000000000000000000000000000000000815260040161160e90613564565b60405180910390fd5b3273ffffffffffffffffffffffffffffffffffffffff163373ffffffffffffffffffffffffffffffffffffffff1614611685576040517f08c379a000000000000000000000000000000000000000000000000000000000815260040161167c90613524565b60405180910390fd5b60125486601460003373ffffffffffffffffffffffffffffffffffffffff1673ffffffffffffffffffffffffffffffffffffffff168152602001908152602001600020546116d39190613729565b1115611714576040517f08c379a000000000000000000000000000000000000000000000000000000000815260040161170b90613504565b60405180910390fd5b85601054611722919061377f565b341015611764576040517f08c379a000000000000000000000000000000000000000000000000000000000815260040161175b90613484565b60405180910390fd5b85601460003373ffffffffffffffffffffffffffffffffffffffff1673ffffffffffffffffffffffffffffffffffffffff16815260200190815260200160002060008282546117b39190613729565b925050819055506117c43387612202565b50506117ce612132565b505050505050565b600d60019054906101000a900460ff1681565b6117f4848484610c41565b60008373ffffffffffffffffffffffffffffffffffffffff163b146118565761181f84848484612237565b611855576040517fd1a57ed600000000000000000000000000000000000000000000000000000000815260040160405180910390fd5b5b50505050565b611864612064565b80600c908051906020019061187a929190612abd565b5050565b611886612064565b8060168190555050565b600b805461189d906138cd565b80601f01602080910402602001604051908101604052809291908181526020018280546118c9906138cd565b80156119165780601f106118eb57610100808354040283529160200191611916565b820191906000526020600020905b8154815290600101906020018083116118f957829003601f168201915b505050505081565b606061192982611e5c565b611968576040517f08c379a000000000000000000000000000000000000000000000000000000000815260040161195f906135e4565b60405180910390fd5b60001515600d60029054906101000a900460ff1615151415611a1657600c8054611991906138cd565b80601f01602080910402602001604051908101604052809291908181526020018280546119bd906138cd565b8015611a0a5780601f106119df57610100808354040283529160200191611a0a565b820191906000526020600020905b8154815290600101906020018083116119ed57829003601f168201915b50505050509050611a72565b6000611a20612397565b90506000815111611a405760405180602001604052806000815250611a6e565b80611a4a84612429565b600b604051602001611a5e9392919061337f565b6040516020818303038152906040525b9150505b919050565b600d60029054906101000a900460ff1681565b611a92612064565b6000601381905550565b60125481565b60115481565b6000600760008473ffffffffffffffffffffffffffffffffffffffff1673ffffffffffffffffffffffffffffffffffffffff16815260200190815260200160002060008373ffffffffffffffffffffffffffffffffffffffff1673ffffffffffffffffffffffffffffffffffffffff16815260200190815260200160002060009054906101000a900460ff16905092915050565b611b44612064565b80600d60016101000a81548160ff02191690831515021790555050565b611b696120e2565b80600d60019054906101000a900460ff16611bb9576040517f08c379a0000000000000000000000000000000000000000000000000000000008152600401611bb0906134e4565b60405180910390fd5b81601354600e54611bca91906137d9565b81611bd3610c2a565b611bdd9190613729565b1115611c1e576040517f08c379a0000000000000000000000000000000000000000000000000000000008152600401611c1590613564565b60405180910390fd5b3273ffffffffffffffffffffffffffffffffffffffff163373ffffffffffffffffffffffffffffffffffffffff1614611c8c576040517f08c379a0000000000000000000000000000000000000000000000000000000008152600401611c83906134c4565b60405180910390fd5b60115483601560003373ffffffffffffffffffffffffffffffffffffffff1673ffffffffffffffffffffffffffffffffffffffff16815260200190815260200160002054611cda9190613729565b1115611d1b576040517f08c379a0000000000000000000000000000000000000000000000000000000008152600401611d1290613544565b60405180910390fd5b82600f54611d29919061377f565b341015611d6b576040517f08c379a0000000000000000000000000000000000000000000000000000000008152600401611d6290613484565b60405180910390fd5b82601560003373ffffffffffffffffffffffffffffffffffffffff1673ffffffffffffffffffffffffffffffffffffffff1681526020019081526020016000206000828254611dba9190613729565b92505081905550611dcb3384612202565b5050611dd5612132565b50565b611de0612064565b600073ffffffffffffffffffffffffffffffffffffffff168173ffffffffffffffffffffffffffffffffffffffff161415611e50576040517f08c379a0000000000000000000000000000000000000000000000000000000008152600401611e47906134a4565b60405180910390fd5b611e598161213c565b50565b600081611e67611ec3565b11158015611e76575060005482105b8015611eb4575060007c0100000000000000000000000000000000000000000000000000000000600460008581526020019081526020016000205416145b9050919050565b600033905090565b60006001905090565b60008082905080611edb611ec3565b11611f6357600054811015611f625760006004600083815260200190815260200160002054905060007c010000000000000000000000000000000000000000000000000000000082161415611f60575b6000811415611f56576004600083600190039350838152602001908152602001600020549050611f2b565b8092505050611f95565b505b5b6040517fdf2d9b4200000000000000000000000000000000000000000000000000000000815260040160405180910390fd5b919050565b60008060006006600085815260200190815260200160002090508092508254915050915091565b600073ffffffffffffffffffffffffffffffffffffffff8316925073ffffffffffffffffffffffffffffffffffffffff821691508382148383141790509392505050565b50505050565b60008060e883901c905060e861202286868461254d565b62ffffff16901b9150509392505050565b600073ffffffffffffffffffffffffffffffffffffffff83169250814260a01b178317905092915050565b50505050565b61206c612556565b73ffffffffffffffffffffffffffffffffffffffff1661208a6112a6565b73ffffffffffffffffffffffffffffffffffffffff16146120e0576040517f08c379a00000000000000000000000000000000000000000000000000000000081526004016120d7906135a4565b60405180910390fd5b565b60026009541415612128576040517f08c379a000000000000000000000000000000000000000000000000000000000815260040161211f90613604565b60405180910390fd5b6002600981905550565b6001600981905550565b6000600860009054906101000a900473ffffffffffffffffffffffffffffffffffffffff16905081600860006101000a81548173ffffffffffffffffffffffffffffffffffffffff021916908373ffffffffffffffffffffffffffffffffffffffff1602179055508173ffffffffffffffffffffffffffffffffffffffff168173ffffffffffffffffffffffffffffffffffffffff167f8be0079c531659141344cd1fd0a4f28419497f9722a3daafe3b4186f6b6457e060405160405180910390a35050565b61221c82826040518060200160405280600081525061255e565b5050565b60008261222d85846125fb565b1490509392505050565b60008373ffffffffffffffffffffffffffffffffffffffff1663150b7a0261225d611ebb565b8786866040518563ffffffff1660e01b815260040161227f94939291906133e0565b602060405180830381600087803b15801561229957600080fd5b505af19250505080156122ca57506040513d601f19601f820116820180604052508101906122c79190612f72565b60015b612344573d80600081146122fa576040519150601f19603f3d011682016040523d82523d6000602084013e6122ff565b606091505b5060008151141561233c576040517fd1a57ed600000000000000000000000000000000000000000000000000000000815260040160405180910390fd5b805181602001fd5b63150b7a0260e01b7bffffffffffffffffffffffffffffffffffffffffffffffffffffffff1916817bffffffffffffffffffffffffffffffffffffffffffffffffffffffff191614915050949350505050565b6060600a80546123a6906138cd565b80601f01602080910402602001604051908101604052809291908181526020018280546123d2906138cd565b801561241f5780601f106123f45761010080835404028352916020019161241f565b820191906000526020600020905b81548152906001019060200180831161240257829003601f168201915b5050505050905090565b60606000600161243884612677565b01905060008167ffffffffffffffff81111561247d577f4e487b7100000000000000000000000000000000000000000000000000000000600052604160045260246000fd5b6040519080825280601f01601f1916602001820160405280156124af5781602001600182028036833780820191505090505b509050600082602001820190505b600115612542578080600190039150507f3031323334353637383961626364656600000000000000000000000000000000600a86061a8153600a858161252c577f4e487b7100000000000000000000000000000000000000000000000000000000600052601260045260246000fd5b049450600085141561253d57612542565b6124bd565b819350505050919050565b60009392505050565b600033905090565b61256883836128ae565b60008373ffffffffffffffffffffffffffffffffffffffff163b146125f657600080549050600083820390505b6125a86000868380600101945086612237565b6125de576040517fd1a57ed600000000000000000000000000000000000000000000000000000000815260040160405180910390fd5b8181106125955781600054146125f357600080fd5b50505b505050565b60008082905060005b845181101561266c576126578286838151811061264a577f4e487b7100000000000000000000000000000000000000000000000000000000600052603260045260246000fd5b6020026020010151612a6b565b9150808061266490613930565b915050612604565b508091505092915050565b600080600090507a184f03e93ff9f4daa797ed6e38ed64bf6a1f01000000000000000083106126fb577a184f03e93ff9f4daa797ed6e38ed64bf6a1f01000000000000000083816126f1577f4e487b7100000000000000000000000000000000000000000000000000000000600052601260045260246000fd5b0492506040810190505b6d04ee2d6d415b85acef8100000000831061275e576d04ee2d6d415b85acef81000000008381612754577f4e487b7100000000000000000000000000000000000000000000000000000000600052601260045260246000fd5b0492506020810190505b662386f26fc1000083106127b357662386f26fc1000083816127a9577f4e487b7100000000000000000000000000000000000000000000000000000000600052601260045260246000fd5b0492506010810190505b6305f5e1008310612802576305f5e10083816127f8577f4e487b7100000000000000000000000000000000000000000000000000000000600052601260045260246000fd5b0492506008810190505b612710831061284d576127108381612843577f4e487b7100000000000000000000000000000000000000000000000000000000600052601260045260246000fd5b0492506004810190505b60648310612896576064838161288c577f4e487b7100000000000000000000000000000000000000000000000000000000600052601260045260246000fd5b0492506002810190505b600a83106128a5576001810190505b80915050919050565b60008054905060008214156128ef576040517fb562e8dd00000000000000000000000000000000000000000000000000000000815260040160405180910390fd5b6128fc6000848385612005565b600160406001901b178202600560008573ffffffffffffffffffffffffffffffffffffffff1673ffffffffffffffffffffffffffffffffffffffff1681526020019081526020016000206000828254019250508190555061297383612964600086600061200b565b61296d85612a96565b17612033565b6004600083815260200190815260200160002081905550600080838301905073ffffffffffffffffffffffffffffffffffffffff85169150828260007fddf252ad1be2c89b69c2b068fc378daa952ba7f163c4a11628f55a4df523b3ef600080a4600183015b818114612a1457808360007fddf252ad1be2c89b69c2b068fc378daa952ba7f163c4a11628f55a4df523b3ef600080a46001810190506129d9565b506000821415612a50576040517f2e07630000000000000000000000000000000000000000000000000000000000815260040160405180910390fd5b806000819055505050612a66600084838561205e565b505050565b6000818310612a8357612a7e8284612aa6565b612a8e565b612a8d8383612aa6565b5b905092915050565b60006001821460e11b9050919050565b600082600052816020526040600020905092915050565b828054612ac9906138cd565b90600052602060002090601f016020900481019282612aeb5760008555612b32565b82601f10612b0457805160ff1916838001178555612b32565b82800160010185558215612b32579182015b82811115612b31578251825591602001919060010190612b16565b5b509050612b3f9190612b43565b5090565b5b80821115612b5c576000816000905550600101612b44565b5090565b6000612b73612b6e84613664565b61363f565b905082815260208101848484011115612b8b57600080fd5b612b9684828561388b565b509392505050565b6000612bb1612bac84613695565b61363f565b905082815260208101848484011115612bc957600080fd5b612bd484828561388b565b509392505050565b600081359050612beb81613cf8565b92915050565b60008083601f840112612c0357600080fd5b8235905067ffffffffffffffff811115612c1c57600080fd5b602083019150836020820283011115612c3457600080fd5b9250929050565b600081359050612c4a81613d0f565b92915050565b600081359050612c5f81613d26565b92915050565b600081359050612c7481613d3d565b92915050565b600081519050612c8981613d3d565b92915050565b600082601f830112612ca057600080fd5b8135612cb0848260208601612b60565b91505092915050565b600082601f830112612cca57600080fd5b8135612cda848260208601612b9e565b91505092915050565b600081359050612cf281613d54565b92915050565b600060208284031215612d0a57600080fd5b6000612d1884828501612bdc565b91505092915050565b60008060408385031215612d3457600080fd5b6000612d4285828601612bdc565b9250506020612d5385828601612bdc565b9150509250929050565b600080600060608486031215612d7257600080fd5b6000612d8086828701612bdc565b9350506020612d9186828701612bdc565b9250506040612da286828701612ce3565b9150509250925092565b60008060008060808587031215612dc257600080fd5b6000612dd087828801612bdc565b9450506020612de187828801612bdc565b9350506040612df287828801612ce3565b925050606085013567ffffffffffffffff811115612e0f57600080fd5b612e1b87828801612c8f565b91505092959194509250565b60008060408385031215612e3a57600080fd5b6000612e4885828601612bdc565b9250506020612e5985828601612c3b565b9150509250929050565b60008060408385031215612e7657600080fd5b6000612e8485828601612bdc565b9250506020612e9585828601612ce3565b9150509250929050565b600080600060408486031215612eb457600080fd5b600084013567ffffffffffffffff811115612ece57600080fd5b612eda86828701612bf1565b93509350506020612eed86828701612ce3565b9150509250925092565b600060208284031215612f0957600080fd5b6000612f1784828501612c3b565b91505092915050565b600060208284031215612f3257600080fd5b6000612f4084828501612c50565b91505092915050565b600060208284031215612f5b57600080fd5b6000612f6984828501612c65565b91505092915050565b600060208284031215612f8457600080fd5b6000612f9284828501612c7a565b91505092915050565b600060208284031215612fad57600080fd5b600082013567ffffffffffffffff811115612fc757600080fd5b612fd384828501612cb9565b91505092915050565b600060208284031215612fee57600080fd5b6000612ffc84828501612ce3565b91505092915050565b61300e8161380d565b82525050565b6130256130208261380d565b613979565b82525050565b6130348161381f565b82525050565b6130438161382b565b82525050565b6000613054826136db565b61305e81856136f1565b935061306e81856020860161389a565b61307781613a2a565b840191505092915050565b600061308d826136e6565b613097818561370d565b93506130a781856020860161389a565b6130b081613a2a565b840191505092915050565b60006130c6826136e6565b6130d0818561371e565b93506130e081856020860161389a565b80840191505092915050565b600081546130f9816138cd565b613103818661371e565b9450600182166000811461311e576001811461312f57613162565b60ff19831686528186019350613162565b613138856136c6565b60005b8381101561315a5781548189015260018201915060208101905061313b565b838801955050505b50505092915050565b600061317860178361370d565b915061318382613a48565b602082019050919050565b600061319b60268361370d565b91506131a682613a71565b604082019050919050565b60006131be60158361370d565b91506131c982613ac0565b602082019050919050565b60006131e160138361370d565b91506131ec82613ae9565b602082019050919050565b600061320460168361370d565b915061320f82613b12565b602082019050919050565b600061322760148361370d565b915061323282613b3b565b602082019050919050565b600061324a601a8361370d565b915061325582613b64565b602082019050919050565b600061326d60288361370d565b915061327882613b8d565b604082019050919050565b6000613290601b8361370d565b915061329b82613bdc565b602082019050919050565b60006132b360208361370d565b91506132be82613c05565b602082019050919050565b60006132d6602b8361370d565b91506132e182613c2e565b604082019050919050565b60006132f9602f8361370d565b915061330482613c7d565b604082019050919050565b600061331c600083613702565b915061332782613ccc565b600082019050919050565b600061333f601f8361370d565b915061334a82613ccf565b602082019050919050565b61335e81613881565b82525050565b60006133708284613014565b60148201915081905092915050565b600061338b82866130bb565b915061339782856130bb565b91506133a382846130ec565b9150819050949350505050565b60006133bb8261330f565b9150819050919050565b60006020820190506133da6000830184613005565b92915050565b60006080820190506133f56000830187613005565b6134026020830186613005565b61340f6040830185613355565b81810360608301526134218184613049565b905095945050505050565b6000602082019050613441600083018461302b565b92915050565b600060208201905061345c600083018461303a565b92915050565b6000602082019050818103600083015261347c8184613082565b905092915050565b6000602082019050818103600083015261349d8161316b565b9050919050565b600060208201905081810360008301526134bd8161318e565b9050919050565b600060208201905081810360008301526134dd816131b1565b9050919050565b600060208201905081810360008301526134fd816131d4565b9050919050565b6000602082019050818103600083015261351d816131f7565b9050919050565b6000602082019050818103600083015261353d8161321a565b9050919050565b6000602082019050818103600083015261355d8161323d565b9050919050565b6000602082019050818103600083015261357d81613260565b9050919050565b6000602082019050818103600083015261359d81613283565b9050919050565b600060208201905081810360008301526135bd816132a6565b9050919050565b600060208201905081810360008301526135dd816132c9565b9050919050565b600060208201905081810360008301526135fd816132ec565b9050919050565b6000602082019050818103600083015261361d81613332565b9050919050565b60006020820190506136396000830184613355565b92915050565b600061364961365a565b905061365582826138ff565b919050565b6000604051905090565b600067ffffffffffffffff82111561367f5761367e6139fb565b5b61368882613a2a565b9050602081019050919050565b600067ffffffffffffffff8211156136b0576136af6139fb565b5b6136b982613a2a565b9050602081019050919050565b60008190508160005260206000209050919050565b600081519050919050565b600081519050919050565b600082825260208201905092915050565b600081905092915050565b600082825260208201905092915050565b600081905092915050565b600061373482613881565b915061373f83613881565b9250827fffffffffffffffffffffffffffffffffffffffffffffffffffffffffffffffff038211156137745761377361399d565b5b828201905092915050565b600061378a82613881565b915061379583613881565b9250817fffffffffffffffffffffffffffffffffffffffffffffffffffffffffffffffff04831182151516156137ce576137cd61399d565b5b828202905092915050565b60006137e482613881565b91506137ef83613881565b9250828210156138025761380161399d565b5b828203905092915050565b600061381882613861565b9050919050565b60008115159050919050565b6000819050919050565b60007fffffffff0000000000000000000000000000000000000000000000000000000082169050919050565b600073ffffffffffffffffffffffffffffffffffffffff82169050919050565b6000819050919050565b82818337600083830152505050565b60005b838110156138b857808201518184015260208101905061389d565b838111156138c7576000848401525b50505050565b600060028204905060018216806138e557607f821691505b602082108114156138f9576138f86139cc565b5b50919050565b61390882613a2a565b810181811067ffffffffffffffff82111715613927576139266139fb565b5b80604052505050565b600061393b82613881565b91507fffffffffffffffffffffffffffffffffffffffffffffffffffffffffffffffff82141561396e5761396d61399d565b5b600182019050919050565b60006139848261398b565b9050919050565b600061399682613a3b565b9050919050565b7f4e487b7100000000000000000000000000000000000000000000000000000000600052601160045260246000fd5b7f4e487b7100000000000000000000000000000000000000000000000000000000600052602260045260246000fd5b7f4e487b7100000000000000000000000000000000000000000000000000000000600052604160045260246000fd5b6000601f19601f8301169050919050565b60008160601b9050919050565b7f4e6f7420656e6f7567682045544820746f206d696e7421000000000000000000600082015250565b7f4f776e61626c653a206e6577206f776e657220697320746865207a65726f206160008201527f6464726573730000000000000000000000000000000000000000000000000000602082015250565b7f436f6e7472616374732063616e2774206d696e74210000000000000000000000600082015250565b7f4d696e74206973206e6f74206163746976652100000000000000000000000000600082015250565b7f596f7520616c7265616479206d696e74656420574c2100000000000000000000600082015250565b7f636f6e7472616374732063616e2774206d696e74000000000000000000000000600082015250565b7f596f7520616c7265616479206d696e746564207075626c696321000000000000600082015250565b7f526571756573746564206d696e7420636f756e7420657863656564732074686560008201527f20737570706c7921000000000000000000000000000000000000000000000000602082015250565b7f41646472657373206973206e6f742077686974656c6973746564210000000000600082015250565b7f4f776e61626c653a2063616c6c6572206973206e6f7420746865206f776e6572600082015250565b7f526571756573746564206d696e7420636f756e7420657863656564732072657360008201527f65727665206c696d697421000000000000000000000000000000000000000000602082015250565b7f4552433732314d657461646174613a2055524920717565727920666f72206e6f60008201527f6e6578697374656e7420746f6b656e0000000000000000000000000000000000602082015250565b50565b7f5265656e7472616e637947756172643a207265656e7472616e742063616c6c00600082015250565b613d018161380d565b8114613d0c57600080fd5b50565b613d188161381f565b8114613d2357600080fd5b50565b613d2f8161382b565b8114613d3a57600080fd5b50565b613d4681613835565b8114613d5157600080fd5b50565b613d5d81613881565b8114613d6857600080fd5b5056fea2646970667358221220d2e943e2ae28e3972d403924e5f0156ee8f269186ed52c2b1c52574dfb74481164736f6c63430008040033",
  "linkReferences": {},
  "deployedLinkReferences": {}
}